{
  "contractName": "Barangay4",
  "abi": [
    {
      "anonymous": false,
      "inputs": [
        {
          "indexed": true,
          "name": "requestId",
          "type": "uint256"
        },
        {
          "indexed": false,
          "name": "firstname",
          "type": "string"
        },
        {
          "indexed": false,
          "name": "middlename",
          "type": "string"
        },
        {
          "indexed": false,
          "name": "lastname",
          "type": "string"
        },
        {
          "indexed": false,
          "name": "dateofbirth",
          "type": "string"
        },
        {
          "indexed": false,
          "name": "children",
          "type": "string"
        },
        {
          "indexed": false,
          "name": "user_address",
          "type": "string"
        },
        {
          "indexed": false,
          "name": "status",
          "type": "string"
        }
      ],
      "name": "B4request",
      "type": "event"
    },
    {
      "anonymous": false,
      "inputs": [
        {
          "indexed": true,
          "name": "requestId",
          "type": "uint256"
        },
        {
          "indexed": false,
          "name": "firstname",
          "type": "bool"
        },
        {
          "indexed": false,
          "name": "middlename",
          "type": "bool"
        },
        {
          "indexed": false,
          "name": "lastname",
          "type": "bool"
        },
        {
          "indexed": false,
          "name": "dateofbirth",
          "type": "bool"
        },
        {
          "indexed": false,
          "name": "children",
          "type": "bool"
        },
        {
          "indexed": false,
          "name": "user_address",
          "type": "bool"
        },
        {
          "indexed": false,
          "name": "status",
          "type": "string"
        }
      ],
      "name": "B4res",
      "type": "event"
    },
    {
      "constant": false,
      "inputs": [
        {
          "name": "firstname",
          "type": "string"
        },
        {
          "name": "middlename",
          "type": "string"
        },
        {
          "name": "lastname",
          "type": "string"
        },
        {
          "name": "dateofbirth",
          "type": "string"
        },
        {
          "name": "children",
          "type": "string"
        },
        {
          "name": "user_address",
          "type": "string"
        },
        {
          "name": "status",
          "type": "string"
        }
      ],
      "name": "B4data",
      "outputs": [],
      "payable": false,
      "stateMutability": "nonpayable",
      "type": "function"
    },
    {
      "constant": false,
      "inputs": [
        {
          "name": "firstname",
          "type": "bool"
        },
        {
          "name": "middlename",
          "type": "bool"
        },
        {
          "name": "lastname",
          "type": "bool"
        },
        {
          "name": "dateofbirth",
          "type": "bool"
        },
        {
          "name": "children",
          "type": "bool"
        },
        {
          "name": "user_address",
          "type": "bool"
        },
        {
          "name": "status",
          "type": "string"
        }
      ],
      "name": "B4response",
      "outputs": [],
      "payable": false,
      "stateMutability": "nonpayable",
      "type": "function"
    }
  ],
  "bytecode": "0x608060405234801561001057600080fd5b506109e6806100206000396000f3fe608060405234801561001057600080fd5b50600436106100365760003560e01c80635ee23a3e1461003b578063861f1e421461013e575b600080fd5b61013c600480360360e081101561005157600080fd5b81019080803515159060200190929190803515159060200190929190803515159060200190929190803515159060200190929190803515159060200190929190803515159060200190929190803590602001906401000000008111156100b657600080fd5b8201836020820111156100c857600080fd5b803590602001918460018302840111640100000000831117156100ea57600080fd5b91908080601f016020809104026020016040519081016040528093929190818152602001838380828437600081840152601f19601f820116905080830192505050505050509192919290505050610583565b005b610581600480360360e081101561015457600080fd5b810190808035906020019064010000000081111561017157600080fd5b82018360208201111561018357600080fd5b803590602001918460018302840111640100000000831117156101a557600080fd5b91908080601f016020809104026020016040519081016040528093929190818152602001838380828437600081840152601f19601f8201169050808301925050505050505091929192908035906020019064010000000081111561020857600080fd5b82018360208201111561021a57600080fd5b8035906020019184600183028401116401000000008311171561023c57600080fd5b91908080601f016020809104026020016040519081016040528093929190818152602001838380828437600081840152601f19601f8201169050808301925050505050505091929192908035906020019064010000000081111561029f57600080fd5b8201836020820111156102b157600080fd5b803590602001918460018302840111640100000000831117156102d357600080fd5b91908080601f016020809104026020016040519081016040528093929190818152602001838380828437600081840152601f19601f8201169050808301925050505050505091929192908035906020019064010000000081111561033657600080fd5b82018360208201111561034857600080fd5b8035906020019184600183028401116401000000008311171561036a57600080fd5b91908080601f016020809104026020016040519081016040528093929190818152602001838380828437600081840152601f19601f820116905080830192505050505050509192919290803590602001906401000000008111156103cd57600080fd5b8201836020820111156103df57600080fd5b8035906020019184600183028401116401000000008311171561040157600080fd5b91908080601f016020809104026020016040519081016040528093929190818152602001838380828437600081840152601f19601f8201169050808301925050505050505091929192908035906020019064010000000081111561046457600080fd5b82018360208201111561047657600080fd5b8035906020019184600183028401116401000000008311171561049857600080fd5b91908080601f016020809104026020016040519081016040528093929190818152602001838380828437600081840152601f19601f820116905080830192505050505050509192919290803590602001906401000000008111156104fb57600080fd5b82018360208201111561050d57600080fd5b8035906020019184600183028401116401000000008311171561052f57600080fd5b91908080601f016020809104026020016040519081016040528093929190818152602001838380828437600081840152601f19601f820116905080830192505050505050509192919290505050610673565b005b6000547f0e9a0a0e14c95d85fb63e131779c76f7499d1cc3e0bfbb4833cf8231603ffce9888888888888886040518088151515158152602001871515151581526020018615151515815260200185151515158152602001841515151581526020018315151515815260200180602001828103825283818151815260200191508051906020019080838360005b8381101561062a57808201518184015260208101905061060f565b50505050905090810190601f1680156106575780820380516001836020036101000a031916815260200191505b509850505050505050505060405180910390a250505050505050565b60008081548092919060010191905055506000547f07591959f092370ae4d040b5f64d8361eafe6e1d69a426ff64798569f3a57f1388888888888888604051808060200180602001806020018060200180602001806020018060200188810388528f818151815260200191508051906020019080838360005b838110156107075780820151818401526020810190506106ec565b50505050905090810190601f1680156107345780820380516001836020036101000a031916815260200191505b5088810387528e818151815260200191508051906020019080838360005b8381101561076d578082015181840152602081019050610752565b50505050905090810190601f16801561079a5780820380516001836020036101000a031916815260200191505b5088810386528d818151815260200191508051906020019080838360005b838110156107d35780820151818401526020810190506107b8565b50505050905090810190601f1680156108005780820380516001836020036101000a031916815260200191505b5088810385528c818151815260200191508051906020019080838360005b8381101561083957808201518184015260208101905061081e565b50505050905090810190601f1680156108665780820380516001836020036101000a031916815260200191505b5088810384528b818151815260200191508051906020019080838360005b8381101561089f578082015181840152602081019050610884565b50505050905090810190601f1680156108cc5780820380516001836020036101000a031916815260200191505b5088810383528a818151815260200191508051906020019080838360005b838110156109055780820151818401526020810190506108ea565b50505050905090810190601f1680156109325780820380516001836020036101000a031916815260200191505b50888103825289818151815260200191508051906020019080838360005b8381101561096b578082015181840152602081019050610950565b50505050905090810190601f1680156109985780820380516001836020036101000a031916815260200191505b509e50505050505050505050505050505060405180910390a25050505050505056fea165627a7a72305820f80d92eb0c586657302580ac6da6a6a47f3cac2ebe4feb4d72670c34cb6e05690029",
  "source": "pragma solidity ^0.5.5;\n\ncontract Barangay4 {\n    uint256 _requestIndex;\n\n    event B4request(\n        uint256 indexed requestId,\n        string firstname,\n        string middlename,\n        string lastname,\n        string dateofbirth,\n        string children,\n        string user_address,\n        string status\n    );\n\n    event B4res(\n        uint256 indexed requestId,\n        bool firstname,\n        bool middlename,\n        bool lastname,\n        bool dateofbirth,\n        bool children,\n        bool user_address,\n        string status\n    );\n\n    //called data request to NBI\n    function B4data(\n        string memory firstname,\n        string memory middlename,\n        string memory lastname,\n        string memory dateofbirth,\n        string memory children,\n        string memory user_address,\n        string memory status\n    ) public {\n        _requestIndex++;\n\n        emit B4request(\n            _requestIndex,\n            firstname,\n            middlename,\n            lastname,\n            dateofbirth,\n            children,\n            user_address,\n            status\n        );\n    }\n\n    //NBI response\n    function B4response(\n        bool firstname,\n        bool middlename,\n        bool lastname,\n        bool dateofbirth,\n        bool children,\n        bool user_address,\n        string memory status\n    ) public {\n        emit B4res(\n            _requestIndex,\n            firstname,\n            middlename,\n            lastname,\n            dateofbirth,\n            children,\n            user_address,\n            status\n        );\n    }\n}\n",
  "sourcePath": "/Users/chriszertamayo/Desktop/SGV_PROJ/ Barangay/src/contracts/b4.sol",
  "compiler": {
    "name": "solc",
    "version": "0.5.5+commit.47a71e8f.Emscripten.clang"
  },
  "schemaVersion": "3.0.12",
  "updatedAt": "2020-08-26T03:06:23.909Z",
  "devdoc": {
    "methods": {}
  },
  "userdoc": {
    "methods": {}
  }
}