{
  "contractName": "Barangay3",
  "abi": [
    {
      "constant": true,
      "inputs": [],
      "name": "b3_data_count",
      "outputs": [
        {
          "name": "",
          "type": "uint256"
        }
      ],
      "payable": false,
      "stateMutability": "view",
      "type": "function"
    },
    {
      "constant": true,
      "inputs": [
        {
          "name": "",
          "type": "uint256"
        }
      ],
      "name": "b3_res",
      "outputs": [
        {
          "name": "firstname",
          "type": "bool"
        },
        {
          "name": "middlename",
          "type": "bool"
        },
        {
          "name": "lastname",
          "type": "bool"
        },
        {
          "name": "dateofbirth",
          "type": "bool"
        },
        {
          "name": "children",
          "type": "bool"
        },
        {
          "name": "user_address",
          "type": "bool"
        }
      ],
      "payable": false,
      "stateMutability": "view",
      "type": "function"
    },
    {
      "constant": true,
      "inputs": [
        {
          "name": "",
          "type": "uint256"
        }
      ],
      "name": "b3",
      "outputs": [
        {
          "name": "firstname",
          "type": "string"
        },
        {
          "name": "middlename",
          "type": "string"
        },
        {
          "name": "lastname",
          "type": "string"
        },
        {
          "name": "dateofbirth",
          "type": "string"
        },
        {
          "name": "children",
          "type": "string"
        },
        {
          "name": "user_address",
          "type": "string"
        }
      ],
      "payable": false,
      "stateMutability": "view",
      "type": "function"
    },
    {
      "constant": true,
      "inputs": [],
      "name": "b3_result_count",
      "outputs": [
        {
          "name": "",
          "type": "uint256"
        }
      ],
      "payable": false,
      "stateMutability": "view",
      "type": "function"
    },
    {
      "anonymous": false,
      "inputs": [
        {
          "indexed": true,
          "name": "id",
          "type": "uint256"
        },
        {
          "indexed": false,
          "name": "firstname",
          "type": "string"
        },
        {
          "indexed": false,
          "name": "middlename",
          "type": "string"
        },
        {
          "indexed": false,
          "name": "lastname",
          "type": "string"
        },
        {
          "indexed": false,
          "name": "dateofbirth",
          "type": "string"
        },
        {
          "indexed": false,
          "name": "children",
          "type": "string"
        },
        {
          "indexed": false,
          "name": "user_address",
          "type": "string"
        }
      ],
      "name": "b3_data_request",
      "type": "event"
    },
    {
      "anonymous": false,
      "inputs": [
        {
          "indexed": true,
          "name": "id",
          "type": "uint256"
        },
        {
          "indexed": false,
          "name": "firstname",
          "type": "bool"
        },
        {
          "indexed": false,
          "name": "middlename",
          "type": "bool"
        },
        {
          "indexed": false,
          "name": "lastname",
          "type": "bool"
        },
        {
          "indexed": false,
          "name": "dateofbirth",
          "type": "bool"
        },
        {
          "indexed": false,
          "name": "children",
          "type": "bool"
        },
        {
          "indexed": false,
          "name": "user_address",
          "type": "bool"
        }
      ],
      "name": "b3_data_response",
      "type": "event"
    },
    {
      "constant": false,
      "inputs": [
        {
          "name": "_firstname",
          "type": "string"
        },
        {
          "name": "_middlename",
          "type": "string"
        },
        {
          "name": "_lastname",
          "type": "string"
        },
        {
          "name": "_dateofbirth",
          "type": "string"
        },
        {
          "name": "_children",
          "type": "string"
        },
        {
          "name": "_user_address",
          "type": "string"
        }
      ],
      "name": "addB3",
      "outputs": [],
      "payable": false,
      "stateMutability": "nonpayable",
      "type": "function"
    },
    {
      "constant": false,
      "inputs": [
        {
          "name": "_firstname",
          "type": "bool"
        },
        {
          "name": "_middlename",
          "type": "bool"
        },
        {
          "name": "_lastname",
          "type": "bool"
        },
        {
          "name": "_dateofbirth",
          "type": "bool"
        },
        {
          "name": "_children",
          "type": "bool"
        },
        {
          "name": "_user_address",
          "type": "bool"
        }
      ],
      "name": "addB3res",
      "outputs": [],
      "payable": false,
      "stateMutability": "nonpayable",
      "type": "function"
    },
    {
      "constant": true,
      "inputs": [],
      "name": "getLatest_b3",
      "outputs": [
        {
          "name": "",
          "type": "string"
        },
        {
          "name": "",
          "type": "string"
        },
        {
          "name": "",
          "type": "string"
        },
        {
          "name": "",
          "type": "string"
        },
        {
          "name": "",
          "type": "string"
        },
        {
          "name": "",
          "type": "string"
        }
      ],
      "payable": false,
      "stateMutability": "view",
      "type": "function"
    },
    {
      "constant": true,
      "inputs": [],
      "name": "getLatest_b3_res",
      "outputs": [
        {
          "name": "",
          "type": "bool"
        },
        {
          "name": "",
          "type": "bool"
        },
        {
          "name": "",
          "type": "bool"
        },
        {
          "name": "",
          "type": "bool"
        },
        {
          "name": "",
          "type": "bool"
        },
        {
          "name": "",
          "type": "bool"
        }
      ],
      "payable": false,
      "stateMutability": "view",
      "type": "function"
    }
  ],
  "bytecode": "0x608060405260008055600060015534801561001957600080fd5b50611b44806100296000396000f3fe608060405234801561001057600080fd5b50600436106100885760003560e01c8063b0bfd73b1161005b578063b0bfd73b146101ed578063b45058b8146104b0578063c1183bc21461074f578063d41310e814610afd57610088565b806310ad4b351461008d5780631e1768b7146100ab57806348ad2ea1146101045780639b0b83c714610170575b600080fd5b610095610b1b565b6040518082815260200191505060405180910390f35b6100b3610b21565b60405180871515151581526020018615151515815260200185151515158152602001841515151581526020018315151515815260200182151515158152602001965050505050505060405180910390f35b61016e600480360360c081101561011a57600080fd5b81019080803515159060200190929190803515159060200190929190803515159060200190929190803515159060200190929190803515159060200190929190803515159060200190929190505050610c46565b005b61019c6004803603602081101561018657600080fd5b8101908080359060200190929190505050610deb565b60405180871515151581526020018615151515815260200185151515158152602001841515151581526020018315151515815260200182151515158152602001965050505050505060405180910390f35b6102196004803603602081101561020357600080fd5b8101908080359060200190929190505050610e75565b6040518080602001806020018060200180602001806020018060200187810387528d818151815260200191508051906020019080838360005b8381101561026d578082015181840152602081019050610252565b50505050905090810190601f16801561029a5780820380516001836020036101000a031916815260200191505b5087810386528c818151815260200191508051906020019080838360005b838110156102d35780820151818401526020810190506102b8565b50505050905090810190601f1680156103005780820380516001836020036101000a031916815260200191505b5087810385528b818151815260200191508051906020019080838360005b8381101561033957808201518184015260208101905061031e565b50505050905090810190601f1680156103665780820380516001836020036101000a031916815260200191505b5087810384528a818151815260200191508051906020019080838360005b8381101561039f578082015181840152602081019050610384565b50505050905090810190601f1680156103cc5780820380516001836020036101000a031916815260200191505b50878103835289818151815260200191508051906020019080838360005b838110156104055780820151818401526020810190506103ea565b50505050905090810190601f1680156104325780820380516001836020036101000a031916815260200191505b50878103825288818151815260200191508051906020019080838360005b8381101561046b578082015181840152602081019050610450565b50505050905090810190601f1680156104985780820380516001836020036101000a031916815260200191505b509c5050505050505050505050505060405180910390f35b6104b8611241565b6040518080602001806020018060200180602001806020018060200187810387528d818151815260200191508051906020019080838360005b8381101561050c5780820151818401526020810190506104f1565b50505050905090810190601f1680156105395780820380516001836020036101000a031916815260200191505b5087810386528c818151815260200191508051906020019080838360005b83811015610572578082015181840152602081019050610557565b50505050905090810190601f16801561059f5780820380516001836020036101000a031916815260200191505b5087810385528b818151815260200191508051906020019080838360005b838110156105d85780820151818401526020810190506105bd565b50505050905090810190601f1680156106055780820380516001836020036101000a031916815260200191505b5087810384528a818151815260200191508051906020019080838360005b8381101561063e578082015181840152602081019050610623565b50505050905090810190601f16801561066b5780820380516001836020036101000a031916815260200191505b50878103835289818151815260200191508051906020019080838360005b838110156106a4578082015181840152602081019050610689565b50505050905090810190601f1680156106d15780820380516001836020036101000a031916815260200191505b50878103825288818151815260200191508051906020019080838360005b8381101561070a5780820151818401526020810190506106ef565b50505050905090810190601f1680156107375780820380516001836020036101000a031916815260200191505b509c5050505050505050505050505060405180910390f35b610afb600480360360c081101561076557600080fd5b810190808035906020019064010000000081111561078257600080fd5b82018360208201111561079457600080fd5b803590602001918460018302840111640100000000831117156107b657600080fd5b91908080601f016020809104026020016040519081016040528093929190818152602001838380828437600081840152601f19601f8201169050808301925050505050505091929192908035906020019064010000000081111561081957600080fd5b82018360208201111561082b57600080fd5b8035906020019184600183028401116401000000008311171561084d57600080fd5b91908080601f016020809104026020016040519081016040528093929190818152602001838380828437600081840152601f19601f820116905080830192505050505050509192919290803590602001906401000000008111156108b057600080fd5b8201836020820111156108c257600080fd5b803590602001918460018302840111640100000000831117156108e457600080fd5b91908080601f016020809104026020016040519081016040528093929190818152602001838380828437600081840152601f19601f8201169050808301925050505050505091929192908035906020019064010000000081111561094757600080fd5b82018360208201111561095957600080fd5b8035906020019184600183028401116401000000008311171561097b57600080fd5b91908080601f016020809104026020016040519081016040528093929190818152602001838380828437600081840152601f19601f820116905080830192505050505050509192919290803590602001906401000000008111156109de57600080fd5b8201836020820111156109f057600080fd5b80359060200191846001830284011164010000000083111715610a1257600080fd5b91908080601f016020809104026020016040519081016040528093929190818152602001838380828437600081840152601f19601f82011690508083019250505050505050919291929080359060200190640100000000811115610a7557600080fd5b820183602082011115610a8757600080fd5b80359060200191846001830284011164010000000083111715610aa957600080fd5b91908080601f016020809104026020016040519081016040528093929190818152602001838380828437600081840152601f19601f8201169050808301925050505050505091929192905050506116a2565b005b610b05611a6d565b6040518082815260200191505060405180910390f35b60005481565b600080600080600080600060036000600154815260200190815260200160002060000160009054906101000a900460ff169050600060036000600154815260200190815260200160002060000160019054906101000a900460ff169050600060036000600154815260200190815260200160002060000160029054906101000a900460ff169050600060036000600154815260200190815260200160002060000160039054906101000a900460ff169050600060036000600154815260200190815260200160002060000160049054906101000a900460ff169050600060036000600154815260200190815260200160002060000160059054906101000a900460ff1690508585858585859b509b509b509b509b509b50505050505050909192939495565b6001600081548092919060010191905055506040518060c001604052808715158152602001861515815260200185151581526020018415158152602001831515815260200182151581525060036000600154815260200190815260200160002060008201518160000160006101000a81548160ff02191690831515021790555060208201518160000160016101000a81548160ff02191690831515021790555060408201518160000160026101000a81548160ff02191690831515021790555060608201518160000160036101000a81548160ff02191690831515021790555060808201518160000160046101000a81548160ff02191690831515021790555060a08201518160000160056101000a81548160ff0219169083151502179055509050506001547ff0d966d577ccc159a04b7f9702b99db69e1b279b0bb9b7a655e0fcdeb703d60887878787878760405180871515151581526020018615151515815260200185151515158152602001841515151581526020018315151515815260200182151515158152602001965050505050505060405180910390a2505050505050565b60036020528060005260406000206000915090508060000160009054906101000a900460ff16908060000160019054906101000a900460ff16908060000160029054906101000a900460ff16908060000160039054906101000a900460ff16908060000160049054906101000a900460ff16908060000160059054906101000a900460ff16905086565b6002602052806000526040600020600091509050806000018054600181600116156101000203166002900480601f016020809104026020016040519081016040528092919081815260200182805460018160011615610100020316600290048015610f215780601f10610ef657610100808354040283529160200191610f21565b820191906000526020600020905b815481529060010190602001808311610f0457829003601f168201915b505050505090806001018054600181600116156101000203166002900480601f016020809104026020016040519081016040528092919081815260200182805460018160011615610100020316600290048015610fbf5780601f10610f9457610100808354040283529160200191610fbf565b820191906000526020600020905b815481529060010190602001808311610fa257829003601f168201915b505050505090806002018054600181600116156101000203166002900480601f01602080910402602001604051908101604052809291908181526020018280546001816001161561010002031660029004801561105d5780601f106110325761010080835404028352916020019161105d565b820191906000526020600020905b81548152906001019060200180831161104057829003601f168201915b505050505090806003018054600181600116156101000203166002900480601f0160208091040260200160405190810160405280929190818152602001828054600181600116156101000203166002900480156110fb5780601f106110d0576101008083540402835291602001916110fb565b820191906000526020600020905b8154815290600101906020018083116110de57829003601f168201915b505050505090806004018054600181600116156101000203166002900480601f0160208091040260200160405190810160405280929190818152602001828054600181600116156101000203166002900480156111995780601f1061116e57610100808354040283529160200191611199565b820191906000526020600020905b81548152906001019060200180831161117c57829003601f168201915b505050505090806005018054600181600116156101000203166002900480601f0160208091040260200160405190810160405280929190818152602001828054600181600116156101000203166002900480156112375780601f1061120c57610100808354040283529160200191611237565b820191906000526020600020905b81548152906001019060200180831161121a57829003601f168201915b5050505050905086565b606080606080606080606060026000805481526020019081526020016000206000018054600181600116156101000203166002900480601f0160208091040260200160405190810160405280929190818152602001828054600181600116156101000203166002900480156112f75780601f106112cc576101008083540402835291602001916112f7565b820191906000526020600020905b8154815290600101906020018083116112da57829003601f168201915b50505050509050606060026000805481526020019081526020016000206001018054600181600116156101000203166002900480601f0160208091040260200160405190810160405280929190818152602001828054600181600116156101000203166002900480156113ab5780601f10611380576101008083540402835291602001916113ab565b820191906000526020600020905b81548152906001019060200180831161138e57829003601f168201915b50505050509050606060026000805481526020019081526020016000206002018054600181600116156101000203166002900480601f01602080910402602001604051908101604052809291908181526020018280546001816001161561010002031660029004801561145f5780601f106114345761010080835404028352916020019161145f565b820191906000526020600020905b81548152906001019060200180831161144257829003601f168201915b50505050509050606060026000805481526020019081526020016000206003018054600181600116156101000203166002900480601f0160208091040260200160405190810160405280929190818152602001828054600181600116156101000203166002900480156115135780601f106114e857610100808354040283529160200191611513565b820191906000526020600020905b8154815290600101906020018083116114f657829003601f168201915b50505050509050606060026000805481526020019081526020016000206004018054600181600116156101000203166002900480601f0160208091040260200160405190810160405280929190818152602001828054600181600116156101000203166002900480156115c75780601f1061159c576101008083540402835291602001916115c7565b820191906000526020600020905b8154815290600101906020018083116115aa57829003601f168201915b50505050509050606060026000805481526020019081526020016000206005018054600181600116156101000203166002900480601f01602080910402602001604051908101604052809291908181526020018280546001816001161561010002031660029004801561167b5780601f106116505761010080835404028352916020019161167b565b820191906000526020600020905b81548152906001019060200180831161165e57829003601f168201915b505050505090508585858585859b509b509b509b509b509b50505050505050909192939495565b60008081548092919060010191905055506040518060c001604052808781526020018681526020018581526020018481526020018381526020018281525060026000805481526020019081526020016000206000820151816000019080519060200190611710929190611a73565b50602082015181600101908051906020019061172d929190611a73565b50604082015181600201908051906020019061174a929190611a73565b506060820151816003019080519060200190611767929190611a73565b506080820151816004019080519060200190611784929190611a73565b5060a08201518160050190805190602001906117a1929190611a73565b509050506000547f78c65e402a71b3a21a8aac015bab2b2235941f9578a851e2b3e79b48dc3801e28787878787876040518080602001806020018060200180602001806020018060200187810387528d818151815260200191508051906020019080838360005b83811015611823578082015181840152602081019050611808565b50505050905090810190601f1680156118505780820380516001836020036101000a031916815260200191505b5087810386528c818151815260200191508051906020019080838360005b8381101561188957808201518184015260208101905061186e565b50505050905090810190601f1680156118b65780820380516001836020036101000a031916815260200191505b5087810385528b818151815260200191508051906020019080838360005b838110156118ef5780820151818401526020810190506118d4565b50505050905090810190601f16801561191c5780820380516001836020036101000a031916815260200191505b5087810384528a818151815260200191508051906020019080838360005b8381101561195557808201518184015260208101905061193a565b50505050905090810190601f1680156119825780820380516001836020036101000a031916815260200191505b50878103835289818151815260200191508051906020019080838360005b838110156119bb5780820151818401526020810190506119a0565b50505050905090810190601f1680156119e85780820380516001836020036101000a031916815260200191505b50878103825288818151815260200191508051906020019080838360005b83811015611a21578082015181840152602081019050611a06565b50505050905090810190601f168015611a4e5780820380516001836020036101000a031916815260200191505b509c5050505050505050505050505060405180910390a2505050505050565b60015481565b828054600181600116156101000203166002900490600052602060002090601f016020900481019282601f10611ab457805160ff1916838001178555611ae2565b82800160010185558215611ae2579182015b82811115611ae1578251825591602001919060010190611ac6565b5b509050611aef9190611af3565b5090565b611b1591905b80821115611b11576000816000905550600101611af9565b5090565b9056fea165627a7a7230582065016c73838a69aeeb76839aa71a8e8b4f45d72586ae37cb612fa2f8adbf93330029",
  "source": "pragma solidity ^0.5.5;\n\ncontract Barangay3 {\n    uint256 public b3_data_count = 0;\n    uint256 public b3_result_count = 0;\n\n    mapping(uint256 => B3) public b3;\n    mapping(uint256 => B3res) public b3_res;\n\n    event b3_data_request(\n        uint256 indexed id,\n        string firstname,\n        string middlename,\n        string lastname,\n        string dateofbirth,\n        string children,\n        string user_address\n    );\n    event b3_data_response(\n        uint256 indexed id,\n        bool firstname,\n        bool middlename,\n        bool lastname,\n        bool dateofbirth,\n        bool children,\n        bool user_address\n    );\n\n    struct B3 {\n        string firstname;\n        string middlename;\n        string lastname;\n        string dateofbirth;\n        string children;\n        string user_address;\n    }\n    struct B3res {\n        bool firstname;\n        bool middlename;\n        bool lastname;\n        bool dateofbirth;\n        bool children;\n        bool user_address;\n    }\n\n    //callled to add new person if person exist in the agency\n    function addB3(\n        string memory _firstname,\n        string memory _middlename,\n        string memory _lastname,\n        string memory _dateofbirth,\n        string memory _children,\n        string memory _user_address\n    ) public {\n        b3_data_count++;\n\n        b3[b3_data_count] = B3(\n            _firstname,\n            _middlename,\n            _lastname,\n            _dateofbirth,\n            _children,\n            _user_address\n        );\n        emit b3_data_request(\n            b3_data_count,\n            _firstname,\n            _middlename,\n            _lastname,\n            _dateofbirth,\n            _children,\n            _user_address\n        );\n    }\n\n    //called to add new result\n    function addB3res(\n        bool _firstname,\n        bool _middlename,\n        bool _lastname,\n        bool _dateofbirth,\n        bool _children,\n        bool _user_address\n    ) public {\n        b3_result_count++;\n\n        b3_res[b3_result_count] = B3res(\n            _firstname,\n            _middlename,\n            _lastname,\n            _dateofbirth,\n            _children,\n            _user_address\n        );\n        emit b3_data_response(\n            b3_result_count,\n            _firstname,\n            _middlename,\n            _lastname,\n            _dateofbirth,\n            _children,\n            _user_address\n        );\n    }\n\n    //get the latest person on list\n    function getLatest_b3()\n        public\n        view\n        returns (\n            string memory,\n            string memory,\n            string memory,\n            string memory,\n            string memory,\n            string memory\n        )\n    {\n        string memory first = b3[b3_data_count].firstname;\n        string memory middle = b3[b3_data_count].middlename;\n        string memory last = b3[b3_data_count].lastname;\n        string memory dateofbirth = b3[b3_data_count].dateofbirth;\n        string memory children = b3[b3_data_count].children;\n        string memory user_address = b3[b3_data_count].user_address;\n\n        return (first, middle, last, dateofbirth, children, user_address);\n    }\n\n    //get the latest result\n    function getLatest_b3_res()\n        public\n        view\n        returns (\n            bool,\n            bool,\n            bool,\n            bool,\n            bool,\n            bool\n        )\n    {\n        bool first = b3_res[b3_result_count].firstname;\n        bool middle = b3_res[b3_result_count].middlename;\n        bool last = b3_res[b3_result_count].lastname;\n        bool dateofbirth = b3_res[b3_result_count].dateofbirth;\n        bool children = b3_res[b3_result_count].children;\n        bool _user_address = b3_res[b3_result_count].user_address;\n\n        return (first, middle, last, dateofbirth, children, _user_address);\n    }\n}\n",
  "sourcePath": "/Users/chriszertamayo/Desktop/SGV_PROJ/ Barangay/src/contracts/b3.sol",
  "compiler": {
    "name": "solc",
    "version": "0.5.5+commit.47a71e8f.Emscripten.clang"
  },
  "schemaVersion": "3.0.12",
  "updatedAt": "2020-08-26T04:46:23.306Z",
  "devdoc": {
    "methods": {}
  },
  "userdoc": {
    "methods": {}
  }
}