{
  "contractName": "Barangay1",
  "abi": [
    {
      "constant": true,
      "inputs": [],
      "name": "b1_result_count",
      "outputs": [
        {
          "name": "",
          "type": "uint256"
        }
      ],
      "payable": false,
      "stateMutability": "view",
      "type": "function"
    },
    {
      "constant": true,
      "inputs": [
        {
          "name": "",
          "type": "uint256"
        }
      ],
      "name": "b1",
      "outputs": [
        {
          "name": "firstname",
          "type": "string"
        },
        {
          "name": "middlename",
          "type": "string"
        },
        {
          "name": "lastname",
          "type": "string"
        },
        {
          "name": "dateofbirth",
          "type": "string"
        },
        {
          "name": "children",
          "type": "string"
        },
        {
          "name": "user_address",
          "type": "string"
        }
      ],
      "payable": false,
      "stateMutability": "view",
      "type": "function"
    },
    {
      "constant": true,
      "inputs": [
        {
          "name": "",
          "type": "uint256"
        }
      ],
      "name": "b1_res",
      "outputs": [
        {
          "name": "firstname",
          "type": "bool"
        },
        {
          "name": "middlename",
          "type": "bool"
        },
        {
          "name": "lastname",
          "type": "bool"
        },
        {
          "name": "dateofbirth",
          "type": "bool"
        },
        {
          "name": "children",
          "type": "bool"
        },
        {
          "name": "user_address",
          "type": "bool"
        }
      ],
      "payable": false,
      "stateMutability": "view",
      "type": "function"
    },
    {
      "constant": true,
      "inputs": [],
      "name": "b1_data_count",
      "outputs": [
        {
          "name": "",
          "type": "uint256"
        }
      ],
      "payable": false,
      "stateMutability": "view",
      "type": "function"
    },
    {
      "anonymous": false,
      "inputs": [
        {
          "indexed": true,
          "name": "id",
          "type": "uint256"
        },
        {
          "indexed": false,
          "name": "firstname",
          "type": "string"
        },
        {
          "indexed": false,
          "name": "middlename",
          "type": "string"
        },
        {
          "indexed": false,
          "name": "lastname",
          "type": "string"
        },
        {
          "indexed": false,
          "name": "dateofbirth",
          "type": "string"
        },
        {
          "indexed": false,
          "name": "children",
          "type": "string"
        },
        {
          "indexed": false,
          "name": "user_address",
          "type": "string"
        }
      ],
      "name": "b1_data_request",
      "type": "event"
    },
    {
      "anonymous": false,
      "inputs": [
        {
          "indexed": true,
          "name": "id",
          "type": "uint256"
        },
        {
          "indexed": false,
          "name": "firstname",
          "type": "bool"
        },
        {
          "indexed": false,
          "name": "middlename",
          "type": "bool"
        },
        {
          "indexed": false,
          "name": "lastname",
          "type": "bool"
        },
        {
          "indexed": false,
          "name": "dateofbirth",
          "type": "bool"
        },
        {
          "indexed": false,
          "name": "children",
          "type": "bool"
        },
        {
          "indexed": false,
          "name": "user_address",
          "type": "bool"
        }
      ],
      "name": "b1_data_response",
      "type": "event"
    },
    {
      "constant": false,
      "inputs": [
        {
          "name": "_firstname",
          "type": "string"
        },
        {
          "name": "_middlename",
          "type": "string"
        },
        {
          "name": "_lastname",
          "type": "string"
        },
        {
          "name": "_dateofbirth",
          "type": "string"
        },
        {
          "name": "_children",
          "type": "string"
        },
        {
          "name": "_user_address",
          "type": "string"
        }
      ],
      "name": "addB1",
      "outputs": [],
      "payable": false,
      "stateMutability": "nonpayable",
      "type": "function"
    },
    {
      "constant": false,
      "inputs": [
        {
          "name": "_firstname",
          "type": "bool"
        },
        {
          "name": "_middlename",
          "type": "bool"
        },
        {
          "name": "_lastname",
          "type": "bool"
        },
        {
          "name": "_dateofbirth",
          "type": "bool"
        },
        {
          "name": "_children",
          "type": "bool"
        },
        {
          "name": "_user_address",
          "type": "bool"
        }
      ],
      "name": "addB1res",
      "outputs": [],
      "payable": false,
      "stateMutability": "nonpayable",
      "type": "function"
    },
    {
      "constant": true,
      "inputs": [],
      "name": "getLatest_b1",
      "outputs": [
        {
          "name": "",
          "type": "string"
        },
        {
          "name": "",
          "type": "string"
        },
        {
          "name": "",
          "type": "string"
        },
        {
          "name": "",
          "type": "string"
        },
        {
          "name": "",
          "type": "string"
        },
        {
          "name": "",
          "type": "string"
        }
      ],
      "payable": false,
      "stateMutability": "view",
      "type": "function"
    },
    {
      "constant": true,
      "inputs": [],
      "name": "getLatest_b1_res",
      "outputs": [
        {
          "name": "",
          "type": "bool"
        },
        {
          "name": "",
          "type": "bool"
        },
        {
          "name": "",
          "type": "bool"
        },
        {
          "name": "",
          "type": "bool"
        },
        {
          "name": "",
          "type": "bool"
        },
        {
          "name": "",
          "type": "bool"
        }
      ],
      "payable": false,
      "stateMutability": "view",
      "type": "function"
    }
  ],
  "bytecode": "0x608060405260008055600060015534801561001957600080fd5b50611b44806100296000396000f3fe608060405234801561001057600080fd5b50600436106100885760003560e01c80636e13ceb81161005b5780636e13ceb814610666578063e2a4fd77146106d2578063eb7393751461074f578063f8ee55d114610afd57610088565b8063167d06011461008d5780631ef212e7146100ab5780633051d2381461034a5780633a92cbbb1461060d575b600080fd5b610095610b1b565b6040518082815260200191505060405180910390f35b6100b3610b21565b6040518080602001806020018060200180602001806020018060200187810387528d818151815260200191508051906020019080838360005b838110156101075780820151818401526020810190506100ec565b50505050905090810190601f1680156101345780820380516001836020036101000a031916815260200191505b5087810386528c818151815260200191508051906020019080838360005b8381101561016d578082015181840152602081019050610152565b50505050905090810190601f16801561019a5780820380516001836020036101000a031916815260200191505b5087810385528b818151815260200191508051906020019080838360005b838110156101d35780820151818401526020810190506101b8565b50505050905090810190601f1680156102005780820380516001836020036101000a031916815260200191505b5087810384528a818151815260200191508051906020019080838360005b8381101561023957808201518184015260208101905061021e565b50505050905090810190601f1680156102665780820380516001836020036101000a031916815260200191505b50878103835289818151815260200191508051906020019080838360005b8381101561029f578082015181840152602081019050610284565b50505050905090810190601f1680156102cc5780820380516001836020036101000a031916815260200191505b50878103825288818151815260200191508051906020019080838360005b838110156103055780820151818401526020810190506102ea565b50505050905090810190601f1680156103325780820380516001836020036101000a031916815260200191505b509c5050505050505050505050505060405180910390f35b6103766004803603602081101561036057600080fd5b8101908080359060200190929190505050610f82565b6040518080602001806020018060200180602001806020018060200187810387528d818151815260200191508051906020019080838360005b838110156103ca5780820151818401526020810190506103af565b50505050905090810190601f1680156103f75780820380516001836020036101000a031916815260200191505b5087810386528c818151815260200191508051906020019080838360005b83811015610430578082015181840152602081019050610415565b50505050905090810190601f16801561045d5780820380516001836020036101000a031916815260200191505b5087810385528b818151815260200191508051906020019080838360005b8381101561049657808201518184015260208101905061047b565b50505050905090810190601f1680156104c35780820380516001836020036101000a031916815260200191505b5087810384528a818151815260200191508051906020019080838360005b838110156104fc5780820151818401526020810190506104e1565b50505050905090810190601f1680156105295780820380516001836020036101000a031916815260200191505b50878103835289818151815260200191508051906020019080838360005b83811015610562578082015181840152602081019050610547565b50505050905090810190601f16801561058f5780820380516001836020036101000a031916815260200191505b50878103825288818151815260200191508051906020019080838360005b838110156105c85780820151818401526020810190506105ad565b50505050905090810190601f1680156105f55780820380516001836020036101000a031916815260200191505b509c5050505050505050505050505060405180910390f35b61061561134e565b60405180871515151581526020018615151515815260200185151515158152602001841515151581526020018315151515815260200182151515158152602001965050505050505060405180910390f35b6106d0600480360360c081101561067c57600080fd5b81019080803515159060200190929190803515159060200190929190803515159060200190929190803515159060200190929190803515159060200190929190803515159060200190929190505050611473565b005b6106fe600480360360208110156106e857600080fd5b8101908080359060200190929190505050611618565b60405180871515151581526020018615151515815260200185151515158152602001841515151581526020018315151515815260200182151515158152602001965050505050505060405180910390f35b610afb600480360360c081101561076557600080fd5b810190808035906020019064010000000081111561078257600080fd5b82018360208201111561079457600080fd5b803590602001918460018302840111640100000000831117156107b657600080fd5b91908080601f016020809104026020016040519081016040528093929190818152602001838380828437600081840152601f19601f8201169050808301925050505050505091929192908035906020019064010000000081111561081957600080fd5b82018360208201111561082b57600080fd5b8035906020019184600183028401116401000000008311171561084d57600080fd5b91908080601f016020809104026020016040519081016040528093929190818152602001838380828437600081840152601f19601f820116905080830192505050505050509192919290803590602001906401000000008111156108b057600080fd5b8201836020820111156108c257600080fd5b803590602001918460018302840111640100000000831117156108e457600080fd5b91908080601f016020809104026020016040519081016040528093929190818152602001838380828437600081840152601f19601f8201169050808301925050505050505091929192908035906020019064010000000081111561094757600080fd5b82018360208201111561095957600080fd5b8035906020019184600183028401116401000000008311171561097b57600080fd5b91908080601f016020809104026020016040519081016040528093929190818152602001838380828437600081840152601f19601f820116905080830192505050505050509192919290803590602001906401000000008111156109de57600080fd5b8201836020820111156109f057600080fd5b80359060200191846001830284011164010000000083111715610a1257600080fd5b91908080601f016020809104026020016040519081016040528093929190818152602001838380828437600081840152601f19601f82011690508083019250505050505050919291929080359060200190640100000000811115610a7557600080fd5b820183602082011115610a8757600080fd5b80359060200191846001830284011164010000000083111715610aa957600080fd5b91908080601f016020809104026020016040519081016040528093929190818152602001838380828437600081840152601f19601f8201169050808301925050505050505091929192905050506116a2565b005b610b05611a6d565b6040518082815260200191505060405180910390f35b60015481565b606080606080606080606060026000805481526020019081526020016000206000018054600181600116156101000203166002900480601f016020809104026020016040519081016040528092919081815260200182805460018160011615610100020316600290048015610bd75780601f10610bac57610100808354040283529160200191610bd7565b820191906000526020600020905b815481529060010190602001808311610bba57829003601f168201915b50505050509050606060026000805481526020019081526020016000206001018054600181600116156101000203166002900480601f016020809104026020016040519081016040528092919081815260200182805460018160011615610100020316600290048015610c8b5780601f10610c6057610100808354040283529160200191610c8b565b820191906000526020600020905b815481529060010190602001808311610c6e57829003601f168201915b50505050509050606060026000805481526020019081526020016000206002018054600181600116156101000203166002900480601f016020809104026020016040519081016040528092919081815260200182805460018160011615610100020316600290048015610d3f5780601f10610d1457610100808354040283529160200191610d3f565b820191906000526020600020905b815481529060010190602001808311610d2257829003601f168201915b50505050509050606060026000805481526020019081526020016000206003018054600181600116156101000203166002900480601f016020809104026020016040519081016040528092919081815260200182805460018160011615610100020316600290048015610df35780601f10610dc857610100808354040283529160200191610df3565b820191906000526020600020905b815481529060010190602001808311610dd657829003601f168201915b50505050509050606060026000805481526020019081526020016000206004018054600181600116156101000203166002900480601f016020809104026020016040519081016040528092919081815260200182805460018160011615610100020316600290048015610ea75780601f10610e7c57610100808354040283529160200191610ea7565b820191906000526020600020905b815481529060010190602001808311610e8a57829003601f168201915b50505050509050606060026000805481526020019081526020016000206005018054600181600116156101000203166002900480601f016020809104026020016040519081016040528092919081815260200182805460018160011615610100020316600290048015610f5b5780601f10610f3057610100808354040283529160200191610f5b565b820191906000526020600020905b815481529060010190602001808311610f3e57829003601f168201915b505050505090508585858585859b509b509b509b509b509b50505050505050909192939495565b6002602052806000526040600020600091509050806000018054600181600116156101000203166002900480601f01602080910402602001604051908101604052809291908181526020018280546001816001161561010002031660029004801561102e5780601f106110035761010080835404028352916020019161102e565b820191906000526020600020905b81548152906001019060200180831161101157829003601f168201915b505050505090806001018054600181600116156101000203166002900480601f0160208091040260200160405190810160405280929190818152602001828054600181600116156101000203166002900480156110cc5780601f106110a1576101008083540402835291602001916110cc565b820191906000526020600020905b8154815290600101906020018083116110af57829003601f168201915b505050505090806002018054600181600116156101000203166002900480601f01602080910402602001604051908101604052809291908181526020018280546001816001161561010002031660029004801561116a5780601f1061113f5761010080835404028352916020019161116a565b820191906000526020600020905b81548152906001019060200180831161114d57829003601f168201915b505050505090806003018054600181600116156101000203166002900480601f0160208091040260200160405190810160405280929190818152602001828054600181600116156101000203166002900480156112085780601f106111dd57610100808354040283529160200191611208565b820191906000526020600020905b8154815290600101906020018083116111eb57829003601f168201915b505050505090806004018054600181600116156101000203166002900480601f0160208091040260200160405190810160405280929190818152602001828054600181600116156101000203166002900480156112a65780601f1061127b576101008083540402835291602001916112a6565b820191906000526020600020905b81548152906001019060200180831161128957829003601f168201915b505050505090806005018054600181600116156101000203166002900480601f0160208091040260200160405190810160405280929190818152602001828054600181600116156101000203166002900480156113445780601f1061131957610100808354040283529160200191611344565b820191906000526020600020905b81548152906001019060200180831161132757829003601f168201915b5050505050905086565b600080600080600080600060036000600154815260200190815260200160002060000160009054906101000a900460ff169050600060036000600154815260200190815260200160002060000160019054906101000a900460ff169050600060036000600154815260200190815260200160002060000160029054906101000a900460ff169050600060036000600154815260200190815260200160002060000160039054906101000a900460ff169050600060036000600154815260200190815260200160002060000160049054906101000a900460ff169050600060036000600154815260200190815260200160002060000160059054906101000a900460ff1690508585858585859b509b509b509b509b509b50505050505050909192939495565b6001600081548092919060010191905055506040518060c001604052808715158152602001861515815260200185151581526020018415158152602001831515815260200182151581525060036000600154815260200190815260200160002060008201518160000160006101000a81548160ff02191690831515021790555060208201518160000160016101000a81548160ff02191690831515021790555060408201518160000160026101000a81548160ff02191690831515021790555060608201518160000160036101000a81548160ff02191690831515021790555060808201518160000160046101000a81548160ff02191690831515021790555060a08201518160000160056101000a81548160ff0219169083151502179055509050506001547f8d6becc4d59ec4115e8621cd6a66f2301478634aaade3a77d7cb13082641e9ef87878787878760405180871515151581526020018615151515815260200185151515158152602001841515151581526020018315151515815260200182151515158152602001965050505050505060405180910390a2505050505050565b60036020528060005260406000206000915090508060000160009054906101000a900460ff16908060000160019054906101000a900460ff16908060000160029054906101000a900460ff16908060000160039054906101000a900460ff16908060000160049054906101000a900460ff16908060000160059054906101000a900460ff16905086565b60008081548092919060010191905055506040518060c001604052808781526020018681526020018581526020018481526020018381526020018281525060026000805481526020019081526020016000206000820151816000019080519060200190611710929190611a73565b50602082015181600101908051906020019061172d929190611a73565b50604082015181600201908051906020019061174a929190611a73565b506060820151816003019080519060200190611767929190611a73565b506080820151816004019080519060200190611784929190611a73565b5060a08201518160050190805190602001906117a1929190611a73565b509050506000547f0b9377725d45965137c992f020048ecafaccc0d912234c40f7ef3b586af3e0538787878787876040518080602001806020018060200180602001806020018060200187810387528d818151815260200191508051906020019080838360005b83811015611823578082015181840152602081019050611808565b50505050905090810190601f1680156118505780820380516001836020036101000a031916815260200191505b5087810386528c818151815260200191508051906020019080838360005b8381101561188957808201518184015260208101905061186e565b50505050905090810190601f1680156118b65780820380516001836020036101000a031916815260200191505b5087810385528b818151815260200191508051906020019080838360005b838110156118ef5780820151818401526020810190506118d4565b50505050905090810190601f16801561191c5780820380516001836020036101000a031916815260200191505b5087810384528a818151815260200191508051906020019080838360005b8381101561195557808201518184015260208101905061193a565b50505050905090810190601f1680156119825780820380516001836020036101000a031916815260200191505b50878103835289818151815260200191508051906020019080838360005b838110156119bb5780820151818401526020810190506119a0565b50505050905090810190601f1680156119e85780820380516001836020036101000a031916815260200191505b50878103825288818151815260200191508051906020019080838360005b83811015611a21578082015181840152602081019050611a06565b50505050905090810190601f168015611a4e5780820380516001836020036101000a031916815260200191505b509c5050505050505050505050505060405180910390a2505050505050565b60005481565b828054600181600116156101000203166002900490600052602060002090601f016020900481019282601f10611ab457805160ff1916838001178555611ae2565b82800160010185558215611ae2579182015b82811115611ae1578251825591602001919060010190611ac6565b5b509050611aef9190611af3565b5090565b611b1591905b80821115611b11576000816000905550600101611af9565b5090565b9056fea165627a7a72305820d10540230acd0c29c5fbf8ad9a64c47aa3fb97cf53bf74455201642829ed1fcd0029",
  "source": "pragma solidity ^0.5.5;\n\ncontract Barangay1 {\n    uint256 public b1_data_count = 0;\n    uint256 public b1_result_count = 0;\n\n    // store PSA data\n    mapping(uint256 => B1) public b1;\n\n    //stpre PSA result\n    mapping(uint256 => B1res) public b1_res;\n\n    event b1_data_request(\n        uint256 indexed id,\n        string firstname,\n        string middlename,\n        string lastname,\n        string dateofbirth,\n        string children,\n        string user_address\n    );\n    event b1_data_response(\n        uint256 indexed id,\n        bool firstname,\n        bool middlename,\n        bool lastname,\n        bool dateofbirth,\n        bool children,\n        bool user_address\n    );\n\n    //PSA struct\n    struct B1 {\n        string firstname;\n        string middlename;\n        string lastname;\n        string dateofbirth;\n        string children;\n        string user_address;\n    }\n\n    //PSA result struct\n    struct B1res {\n        bool firstname;\n        bool middlename;\n        bool lastname;\n        bool dateofbirth;\n        bool children;\n        bool user_address;\n    }\n\n    //callled to add new person if person exist in the agency\n    function addB1(\n        string memory _firstname,\n        string memory _middlename,\n        string memory _lastname,\n        string memory _dateofbirth,\n        string memory _children,\n        string memory _user_address\n    ) public {\n        b1_data_count++;\n\n        b1[b1_data_count] = B1(\n            _firstname,\n            _middlename,\n            _lastname,\n            _dateofbirth,\n            _children,\n            _user_address\n        );\n        emit b1_data_request(\n            b1_data_count,\n            _firstname,\n            _middlename,\n            _lastname,\n            _dateofbirth,\n            _children,\n            _user_address\n        );\n    }\n\n    //called to add new result\n    function addB1res(\n        bool _firstname,\n        bool _middlename,\n        bool _lastname,\n        bool _dateofbirth,\n        bool _children,\n        bool _user_address\n    ) public {\n        b1_result_count++;\n\n        b1_res[b1_result_count] = B1res(\n            _firstname,\n            _middlename,\n            _lastname,\n            _dateofbirth,\n            _children,\n            _user_address\n        );\n        emit b1_data_response(\n            b1_result_count,\n            _firstname,\n            _middlename,\n            _lastname,\n            _dateofbirth,\n            _children,\n            _user_address\n        );\n    }\n\n    // get the latest person on list\n    function getLatest_b1()\n        public\n        view\n        returns (\n            string memory,\n            string memory,\n            string memory,\n            string memory,\n            string memory,\n            string memory\n        )\n    {\n        string memory first = b1[b1_data_count].firstname;\n        string memory middle = b1[b1_data_count].middlename;\n        string memory last = b1[b1_data_count].lastname;\n        string memory dateofbirth = b1[b1_data_count].dateofbirth;\n        string memory children = b1[b1_data_count].children;\n        string memory user_address = b1[b1_data_count].user_address;\n\n        return (first, middle, last, dateofbirth, children, user_address);\n    }\n\n    // get the latest result\n    function getLatest_b1_res()\n        public\n        view\n        returns (\n            bool,\n            bool,\n            bool,\n            bool,\n            bool,\n            bool\n        )\n    {\n        bool first = b1_res[b1_result_count].firstname;\n        bool middle = b1_res[b1_result_count].middlename;\n        bool last = b1_res[b1_result_count].lastname;\n        bool dateofbirth = b1_res[b1_result_count].dateofbirth;\n        bool children = b1_res[b1_result_count].children;\n        bool user_address = b1_res[b1_result_count].user_address;\n\n        return (first, middle, last, dateofbirth, children, user_address);\n    }\n}\n",
  "sourcePath": "/Users/chriszertamayo/Desktop/SGV_PROJ/ Barangay/src/contracts/b1.sol",
  "compiler": {
    "name": "solc",
    "version": "0.5.5+commit.47a71e8f.Emscripten.clang"
  },
  "schemaVersion": "3.0.12",
  "updatedAt": "2020-08-27T05:38:05.945Z",
  "devdoc": {
    "methods": {}
  },
  "userdoc": {
    "methods": {}
  }
}