{
  "contractName": "Barangay2",
  "abi": [
    {
      "constant": true,
      "inputs": [
        {
          "name": "",
          "type": "uint256"
        }
      ],
      "name": "b2_res",
      "outputs": [
        {
          "name": "firstname",
          "type": "bool"
        },
        {
          "name": "middlename",
          "type": "bool"
        },
        {
          "name": "lastname",
          "type": "bool"
        },
        {
          "name": "dateofbirth",
          "type": "bool"
        },
        {
          "name": "children",
          "type": "bool"
        },
        {
          "name": "user_address",
          "type": "bool"
        }
      ],
      "payable": false,
      "stateMutability": "view",
      "type": "function"
    },
    {
      "constant": true,
      "inputs": [],
      "name": "b2_result_count",
      "outputs": [
        {
          "name": "",
          "type": "uint256"
        }
      ],
      "payable": false,
      "stateMutability": "view",
      "type": "function"
    },
    {
      "constant": true,
      "inputs": [
        {
          "name": "",
          "type": "uint256"
        }
      ],
      "name": "b2",
      "outputs": [
        {
          "name": "firstname",
          "type": "string"
        },
        {
          "name": "middlename",
          "type": "string"
        },
        {
          "name": "lastname",
          "type": "string"
        },
        {
          "name": "dateofbirth",
          "type": "string"
        },
        {
          "name": "children",
          "type": "string"
        },
        {
          "name": "user_address",
          "type": "string"
        }
      ],
      "payable": false,
      "stateMutability": "view",
      "type": "function"
    },
    {
      "constant": true,
      "inputs": [],
      "name": "b2_data_count",
      "outputs": [
        {
          "name": "",
          "type": "uint256"
        }
      ],
      "payable": false,
      "stateMutability": "view",
      "type": "function"
    },
    {
      "anonymous": false,
      "inputs": [
        {
          "indexed": true,
          "name": "id",
          "type": "uint256"
        },
        {
          "indexed": false,
          "name": "firstname",
          "type": "string"
        },
        {
          "indexed": false,
          "name": "middlename",
          "type": "string"
        },
        {
          "indexed": false,
          "name": "lastname",
          "type": "string"
        },
        {
          "indexed": false,
          "name": "dateofbirth",
          "type": "string"
        },
        {
          "indexed": false,
          "name": "children",
          "type": "string"
        },
        {
          "indexed": false,
          "name": "user_address",
          "type": "string"
        }
      ],
      "name": "b2_data_request",
      "type": "event"
    },
    {
      "anonymous": false,
      "inputs": [
        {
          "indexed": true,
          "name": "id",
          "type": "uint256"
        },
        {
          "indexed": false,
          "name": "firstname",
          "type": "bool"
        },
        {
          "indexed": false,
          "name": "middlename",
          "type": "bool"
        },
        {
          "indexed": false,
          "name": "lastname",
          "type": "bool"
        },
        {
          "indexed": false,
          "name": "dateofbirth",
          "type": "bool"
        },
        {
          "indexed": false,
          "name": "children",
          "type": "bool"
        },
        {
          "indexed": false,
          "name": "user_address",
          "type": "bool"
        }
      ],
      "name": "b2_data_response",
      "type": "event"
    },
    {
      "constant": false,
      "inputs": [
        {
          "name": "_firstname",
          "type": "string"
        },
        {
          "name": "_middlename",
          "type": "string"
        },
        {
          "name": "_lastname",
          "type": "string"
        },
        {
          "name": "_dateofbirth",
          "type": "string"
        },
        {
          "name": "_children",
          "type": "string"
        },
        {
          "name": "_user_address",
          "type": "string"
        }
      ],
      "name": "addB2",
      "outputs": [],
      "payable": false,
      "stateMutability": "nonpayable",
      "type": "function"
    },
    {
      "constant": false,
      "inputs": [
        {
          "name": "_firstname",
          "type": "bool"
        },
        {
          "name": "_middlename",
          "type": "bool"
        },
        {
          "name": "_lastname",
          "type": "bool"
        },
        {
          "name": "_dateofbirth",
          "type": "bool"
        },
        {
          "name": "_children",
          "type": "bool"
        },
        {
          "name": "_user_address",
          "type": "bool"
        }
      ],
      "name": "addB2res",
      "outputs": [],
      "payable": false,
      "stateMutability": "nonpayable",
      "type": "function"
    },
    {
      "constant": true,
      "inputs": [],
      "name": "getLatest_b2",
      "outputs": [
        {
          "name": "",
          "type": "string"
        },
        {
          "name": "",
          "type": "string"
        },
        {
          "name": "",
          "type": "string"
        },
        {
          "name": "",
          "type": "string"
        },
        {
          "name": "",
          "type": "string"
        },
        {
          "name": "",
          "type": "string"
        }
      ],
      "payable": false,
      "stateMutability": "view",
      "type": "function"
    },
    {
      "constant": true,
      "inputs": [],
      "name": "getLatest_b2_res",
      "outputs": [
        {
          "name": "",
          "type": "bool"
        },
        {
          "name": "",
          "type": "bool"
        },
        {
          "name": "",
          "type": "bool"
        },
        {
          "name": "",
          "type": "bool"
        },
        {
          "name": "",
          "type": "bool"
        },
        {
          "name": "",
          "type": "bool"
        }
      ],
      "payable": false,
      "stateMutability": "view",
      "type": "function"
    }
  ],
  "bytecode": "0x608060405260008055600060015534801561001957600080fd5b50611b44806100296000396000f3fe608060405234801561001057600080fd5b50600436106100885760003560e01c8063663f408f1161005b578063663f408f14610433578063bff72c221461048c578063dabade841461083a578063f849d45c14610afd57610088565b806305c897301461008d5780634e605a431461010a5780635af8480114610128578063610fe04714610194575b600080fd5b6100b9600480360360208110156100a357600080fd5b8101908080359060200190929190505050610b1b565b60405180871515151581526020018615151515815260200185151515158152602001841515151581526020018315151515815260200182151515158152602001965050505050505060405180910390f35b610112610ba5565b6040518082815260200191505060405180910390f35b610192600480360360c081101561013e57600080fd5b81019080803515159060200190929190803515159060200190929190803515159060200190929190803515159060200190929190803515159060200190929190803515159060200190929190505050610bab565b005b61019c610d50565b6040518080602001806020018060200180602001806020018060200187810387528d818151815260200191508051906020019080838360005b838110156101f05780820151818401526020810190506101d5565b50505050905090810190601f16801561021d5780820380516001836020036101000a031916815260200191505b5087810386528c818151815260200191508051906020019080838360005b8381101561025657808201518184015260208101905061023b565b50505050905090810190601f1680156102835780820380516001836020036101000a031916815260200191505b5087810385528b818151815260200191508051906020019080838360005b838110156102bc5780820151818401526020810190506102a1565b50505050905090810190601f1680156102e95780820380516001836020036101000a031916815260200191505b5087810384528a818151815260200191508051906020019080838360005b83811015610322578082015181840152602081019050610307565b50505050905090810190601f16801561034f5780820380516001836020036101000a031916815260200191505b50878103835289818151815260200191508051906020019080838360005b8381101561038857808201518184015260208101905061036d565b50505050905090810190601f1680156103b55780820380516001836020036101000a031916815260200191505b50878103825288818151815260200191508051906020019080838360005b838110156103ee5780820151818401526020810190506103d3565b50505050905090810190601f16801561041b5780820380516001836020036101000a031916815260200191505b509c5050505050505050505050505060405180910390f35b61043b6111b1565b60405180871515151581526020018615151515815260200185151515158152602001841515151581526020018315151515815260200182151515158152602001965050505050505060405180910390f35b610838600480360360c08110156104a257600080fd5b81019080803590602001906401000000008111156104bf57600080fd5b8201836020820111156104d157600080fd5b803590602001918460018302840111640100000000831117156104f357600080fd5b91908080601f016020809104026020016040519081016040528093929190818152602001838380828437600081840152601f19601f8201169050808301925050505050505091929192908035906020019064010000000081111561055657600080fd5b82018360208201111561056857600080fd5b8035906020019184600183028401116401000000008311171561058a57600080fd5b91908080601f016020809104026020016040519081016040528093929190818152602001838380828437600081840152601f19601f820116905080830192505050505050509192919290803590602001906401000000008111156105ed57600080fd5b8201836020820111156105ff57600080fd5b8035906020019184600183028401116401000000008311171561062157600080fd5b91908080601f016020809104026020016040519081016040528093929190818152602001838380828437600081840152601f19601f8201169050808301925050505050505091929192908035906020019064010000000081111561068457600080fd5b82018360208201111561069657600080fd5b803590602001918460018302840111640100000000831117156106b857600080fd5b91908080601f016020809104026020016040519081016040528093929190818152602001838380828437600081840152601f19601f8201169050808301925050505050505091929192908035906020019064010000000081111561071b57600080fd5b82018360208201111561072d57600080fd5b8035906020019184600183028401116401000000008311171561074f57600080fd5b91908080601f016020809104026020016040519081016040528093929190818152602001838380828437600081840152601f19601f820116905080830192505050505050509192919290803590602001906401000000008111156107b257600080fd5b8201836020820111156107c457600080fd5b803590602001918460018302840111640100000000831117156107e657600080fd5b91908080601f016020809104026020016040519081016040528093929190818152602001838380828437600081840152601f19601f8201169050808301925050505050505091929192905050506112d6565b005b6108666004803603602081101561085057600080fd5b81019080803590602001909291905050506116a1565b6040518080602001806020018060200180602001806020018060200187810387528d818151815260200191508051906020019080838360005b838110156108ba57808201518184015260208101905061089f565b50505050905090810190601f1680156108e75780820380516001836020036101000a031916815260200191505b5087810386528c818151815260200191508051906020019080838360005b83811015610920578082015181840152602081019050610905565b50505050905090810190601f16801561094d5780820380516001836020036101000a031916815260200191505b5087810385528b818151815260200191508051906020019080838360005b8381101561098657808201518184015260208101905061096b565b50505050905090810190601f1680156109b35780820380516001836020036101000a031916815260200191505b5087810384528a818151815260200191508051906020019080838360005b838110156109ec5780820151818401526020810190506109d1565b50505050905090810190601f168015610a195780820380516001836020036101000a031916815260200191505b50878103835289818151815260200191508051906020019080838360005b83811015610a52578082015181840152602081019050610a37565b50505050905090810190601f168015610a7f5780820380516001836020036101000a031916815260200191505b50878103825288818151815260200191508051906020019080838360005b83811015610ab8578082015181840152602081019050610a9d565b50505050905090810190601f168015610ae55780820380516001836020036101000a031916815260200191505b509c5050505050505050505050505060405180910390f35b610b05611a6d565b6040518082815260200191505060405180910390f35b60036020528060005260406000206000915090508060000160009054906101000a900460ff16908060000160019054906101000a900460ff16908060000160029054906101000a900460ff16908060000160039054906101000a900460ff16908060000160049054906101000a900460ff16908060000160059054906101000a900460ff16905086565b60015481565b6001600081548092919060010191905055506040518060c001604052808715158152602001861515815260200185151581526020018415158152602001831515815260200182151581525060036000600154815260200190815260200160002060008201518160000160006101000a81548160ff02191690831515021790555060208201518160000160016101000a81548160ff02191690831515021790555060408201518160000160026101000a81548160ff02191690831515021790555060608201518160000160036101000a81548160ff02191690831515021790555060808201518160000160046101000a81548160ff02191690831515021790555060a08201518160000160056101000a81548160ff0219169083151502179055509050506001547fc0991a9ad5b25d4df2e4eb635ea75e73c572cfb6e2089ef765771e48dfdfff4187878787878760405180871515151581526020018615151515815260200185151515158152602001841515151581526020018315151515815260200182151515158152602001965050505050505060405180910390a2505050505050565b606080606080606080606060026000805481526020019081526020016000206000018054600181600116156101000203166002900480601f016020809104026020016040519081016040528092919081815260200182805460018160011615610100020316600290048015610e065780601f10610ddb57610100808354040283529160200191610e06565b820191906000526020600020905b815481529060010190602001808311610de957829003601f168201915b50505050509050606060026000805481526020019081526020016000206001018054600181600116156101000203166002900480601f016020809104026020016040519081016040528092919081815260200182805460018160011615610100020316600290048015610eba5780601f10610e8f57610100808354040283529160200191610eba565b820191906000526020600020905b815481529060010190602001808311610e9d57829003601f168201915b50505050509050606060026000805481526020019081526020016000206002018054600181600116156101000203166002900480601f016020809104026020016040519081016040528092919081815260200182805460018160011615610100020316600290048015610f6e5780601f10610f4357610100808354040283529160200191610f6e565b820191906000526020600020905b815481529060010190602001808311610f5157829003601f168201915b50505050509050606060026000805481526020019081526020016000206003018054600181600116156101000203166002900480601f0160208091040260200160405190810160405280929190818152602001828054600181600116156101000203166002900480156110225780601f10610ff757610100808354040283529160200191611022565b820191906000526020600020905b81548152906001019060200180831161100557829003601f168201915b50505050509050606060026000805481526020019081526020016000206004018054600181600116156101000203166002900480601f0160208091040260200160405190810160405280929190818152602001828054600181600116156101000203166002900480156110d65780601f106110ab576101008083540402835291602001916110d6565b820191906000526020600020905b8154815290600101906020018083116110b957829003601f168201915b50505050509050606060026000805481526020019081526020016000206005018054600181600116156101000203166002900480601f01602080910402602001604051908101604052809291908181526020018280546001816001161561010002031660029004801561118a5780601f1061115f5761010080835404028352916020019161118a565b820191906000526020600020905b81548152906001019060200180831161116d57829003601f168201915b505050505090508585858585859b509b509b509b509b509b50505050505050909192939495565b600080600080600080600060036000600154815260200190815260200160002060000160009054906101000a900460ff169050600060036000600154815260200190815260200160002060000160019054906101000a900460ff169050600060036000600154815260200190815260200160002060000160029054906101000a900460ff169050600060036000600154815260200190815260200160002060000160039054906101000a900460ff169050600060036000600154815260200190815260200160002060000160049054906101000a900460ff169050600060036000600154815260200190815260200160002060000160059054906101000a900460ff1690508585858585859b509b509b509b509b509b50505050505050909192939495565b60008081548092919060010191905055506040518060c001604052808781526020018681526020018581526020018481526020018381526020018281525060026000805481526020019081526020016000206000820151816000019080519060200190611344929190611a73565b506020820151816001019080519060200190611361929190611a73565b50604082015181600201908051906020019061137e929190611a73565b50606082015181600301908051906020019061139b929190611a73565b5060808201518160040190805190602001906113b8929190611a73565b5060a08201518160050190805190602001906113d5929190611a73565b509050506000547fb72300714b969a3fb327db705b51d55714920fcba6b361df86a8bac59bc234878787878787876040518080602001806020018060200180602001806020018060200187810387528d818151815260200191508051906020019080838360005b8381101561145757808201518184015260208101905061143c565b50505050905090810190601f1680156114845780820380516001836020036101000a031916815260200191505b5087810386528c818151815260200191508051906020019080838360005b838110156114bd5780820151818401526020810190506114a2565b50505050905090810190601f1680156114ea5780820380516001836020036101000a031916815260200191505b5087810385528b818151815260200191508051906020019080838360005b83811015611523578082015181840152602081019050611508565b50505050905090810190601f1680156115505780820380516001836020036101000a031916815260200191505b5087810384528a818151815260200191508051906020019080838360005b8381101561158957808201518184015260208101905061156e565b50505050905090810190601f1680156115b65780820380516001836020036101000a031916815260200191505b50878103835289818151815260200191508051906020019080838360005b838110156115ef5780820151818401526020810190506115d4565b50505050905090810190601f16801561161c5780820380516001836020036101000a031916815260200191505b50878103825288818151815260200191508051906020019080838360005b8381101561165557808201518184015260208101905061163a565b50505050905090810190601f1680156116825780820380516001836020036101000a031916815260200191505b509c5050505050505050505050505060405180910390a2505050505050565b6002602052806000526040600020600091509050806000018054600181600116156101000203166002900480601f01602080910402602001604051908101604052809291908181526020018280546001816001161561010002031660029004801561174d5780601f106117225761010080835404028352916020019161174d565b820191906000526020600020905b81548152906001019060200180831161173057829003601f168201915b505050505090806001018054600181600116156101000203166002900480601f0160208091040260200160405190810160405280929190818152602001828054600181600116156101000203166002900480156117eb5780601f106117c0576101008083540402835291602001916117eb565b820191906000526020600020905b8154815290600101906020018083116117ce57829003601f168201915b505050505090806002018054600181600116156101000203166002900480601f0160208091040260200160405190810160405280929190818152602001828054600181600116156101000203166002900480156118895780601f1061185e57610100808354040283529160200191611889565b820191906000526020600020905b81548152906001019060200180831161186c57829003601f168201915b505050505090806003018054600181600116156101000203166002900480601f0160208091040260200160405190810160405280929190818152602001828054600181600116156101000203166002900480156119275780601f106118fc57610100808354040283529160200191611927565b820191906000526020600020905b81548152906001019060200180831161190a57829003601f168201915b505050505090806004018054600181600116156101000203166002900480601f0160208091040260200160405190810160405280929190818152602001828054600181600116156101000203166002900480156119c55780601f1061199a576101008083540402835291602001916119c5565b820191906000526020600020905b8154815290600101906020018083116119a857829003601f168201915b505050505090806005018054600181600116156101000203166002900480601f016020809104026020016040519081016040528092919081815260200182805460018160011615610100020316600290048015611a635780601f10611a3857610100808354040283529160200191611a63565b820191906000526020600020905b815481529060010190602001808311611a4657829003601f168201915b5050505050905086565b60005481565b828054600181600116156101000203166002900490600052602060002090601f016020900481019282601f10611ab457805160ff1916838001178555611ae2565b82800160010185558215611ae2579182015b82811115611ae1578251825591602001919060010190611ac6565b5b509050611aef9190611af3565b5090565b611b1591905b80821115611b11576000816000905550600101611af9565b5090565b9056fea165627a7a72305820753da2417fc58ac403eab10465c29999ffd6a4e34c775e9f5a7a6971ed9c2ade0029",
  "source": "pragma solidity ^0.5.5;\n\ncontract Barangay2 {\n    uint256 public b2_data_count = 0;\n    uint256 public b2_result_count = 0;\n\n    mapping(uint256 => B2) public b2;\n    mapping(uint256 => B2res) public b2_res;\n\n    event b2_data_request(\n        uint256 indexed id,\n        string firstname,\n        string middlename,\n        string lastname,\n        string dateofbirth,\n        string children,\n        string user_address\n    );\n    event b2_data_response(\n        uint256 indexed id,\n        bool firstname,\n        bool middlename,\n        bool lastname,\n        bool dateofbirth,\n        bool children,\n        bool user_address\n    );\n\n    struct B2 {\n        string firstname;\n        string middlename;\n        string lastname;\n        string dateofbirth;\n        string children;\n        string user_address;\n    }\n    struct B2res {\n        bool firstname;\n        bool middlename;\n        bool lastname;\n        bool dateofbirth;\n        bool children;\n        bool user_address;\n    }\n\n    //callled to add new person if person exist in the agency\n    function addB2(\n        string memory _firstname,\n        string memory _middlename,\n        string memory _lastname,\n        string memory _dateofbirth,\n        string memory _children,\n        string memory _user_address\n    ) public {\n        b2_data_count++;\n\n        b2[b2_data_count] = B2(\n            _firstname,\n            _middlename,\n            _lastname,\n            _dateofbirth,\n            _children,\n            _user_address\n        );\n        emit b2_data_request(\n            b2_data_count,\n            _firstname,\n            _middlename,\n            _lastname,\n            _dateofbirth,\n            _children,\n            _user_address\n        );\n    }\n\n    //called to add new result\n    function addB2res(\n        bool _firstname,\n        bool _middlename,\n        bool _lastname,\n        bool _dateofbirth,\n        bool _children,\n        bool _user_address\n    ) public {\n        b2_result_count++;\n\n        b2_res[b2_result_count] = B2res(\n            _firstname,\n            _middlename,\n            _lastname,\n            _dateofbirth,\n            _children,\n            _user_address\n        );\n        emit b2_data_response(\n            b2_result_count,\n            _firstname,\n            _middlename,\n            _lastname,\n            _dateofbirth,\n            _children,\n            _user_address\n        );\n    }\n\n    // get the latest person on list\n    function getLatest_b2()\n        public\n        view\n        returns (\n            string memory,\n            string memory,\n            string memory,\n            string memory,\n            string memory,\n            string memory\n        )\n    {\n        string memory first = b2[b2_data_count].firstname;\n        string memory middle = b2[b2_data_count].middlename;\n        string memory last = b2[b2_data_count].lastname;\n        string memory dateofbirth = b2[b2_data_count].dateofbirth;\n        string memory children = b2[b2_data_count].children;\n        string memory user_address = b2[b2_data_count].user_address;\n\n        return (first, middle, last, dateofbirth, children, user_address);\n    }\n\n    // get the latest result\n    function getLatest_b2_res()\n        public\n        view\n        returns (\n            bool,\n            bool,\n            bool,\n            bool,\n            bool,\n            bool\n        )\n    {\n        bool first = b2_res[b2_result_count].firstname;\n        bool middle = b2_res[b2_result_count].middlename;\n        bool last = b2_res[b2_result_count].lastname;\n        bool dateofbirth = b2_res[b2_result_count].dateofbirth;\n        bool children = b2_res[b2_result_count].children;\n        bool user_address = b2_res[b2_result_count].user_address;\n\n        return (first, middle, last, dateofbirth, children, user_address);\n    }\n}\n",
  "sourcePath": "/Users/chriszertamayo/Desktop/SGV_PROJ/ Barangay/src/contracts/b2.sol",
  "compiler": {
    "name": "solc",
    "version": "0.5.5+commit.47a71e8f.Emscripten.clang"
  },
  "schemaVersion": "3.0.12",
  "updatedAt": "2020-08-26T03:40:20.907Z",
  "devdoc": {
    "methods": {}
  },
  "userdoc": {
    "methods": {}
  }
}