{
  "contractName": "Master",
  "abi": [
    {
      "constant": true,
      "inputs": [
        {
          "name": "",
          "type": "uint256"
        }
      ],
      "name": "b2_res",
      "outputs": [
        {
          "name": "firstname",
          "type": "bool"
        },
        {
          "name": "middlename",
          "type": "bool"
        },
        {
          "name": "lastname",
          "type": "bool"
        },
        {
          "name": "dateofbirth",
          "type": "bool"
        },
        {
          "name": "children",
          "type": "bool"
        },
        {
          "name": "user_address",
          "type": "bool"
        }
      ],
      "payable": false,
      "stateMutability": "view",
      "type": "function"
    },
    {
      "constant": true,
      "inputs": [],
      "name": "b3_data_count",
      "outputs": [
        {
          "name": "",
          "type": "uint256"
        }
      ],
      "payable": false,
      "stateMutability": "view",
      "type": "function"
    },
    {
      "constant": true,
      "inputs": [],
      "name": "b1_result_count",
      "outputs": [
        {
          "name": "",
          "type": "uint256"
        }
      ],
      "payable": false,
      "stateMutability": "view",
      "type": "function"
    },
    {
      "constant": true,
      "inputs": [],
      "name": "getLatest_b3_res",
      "outputs": [
        {
          "name": "",
          "type": "bool"
        },
        {
          "name": "",
          "type": "bool"
        },
        {
          "name": "",
          "type": "bool"
        },
        {
          "name": "",
          "type": "bool"
        },
        {
          "name": "",
          "type": "bool"
        },
        {
          "name": "",
          "type": "bool"
        }
      ],
      "payable": false,
      "stateMutability": "view",
      "type": "function"
    },
    {
      "constant": true,
      "inputs": [],
      "name": "getLatest_b1",
      "outputs": [
        {
          "name": "",
          "type": "string"
        },
        {
          "name": "",
          "type": "string"
        },
        {
          "name": "",
          "type": "string"
        },
        {
          "name": "",
          "type": "string"
        },
        {
          "name": "",
          "type": "string"
        },
        {
          "name": "",
          "type": "string"
        }
      ],
      "payable": false,
      "stateMutability": "view",
      "type": "function"
    },
    {
      "constant": true,
      "inputs": [
        {
          "name": "",
          "type": "uint256"
        }
      ],
      "name": "b1",
      "outputs": [
        {
          "name": "firstname",
          "type": "string"
        },
        {
          "name": "middlename",
          "type": "string"
        },
        {
          "name": "lastname",
          "type": "string"
        },
        {
          "name": "dateofbirth",
          "type": "string"
        },
        {
          "name": "children",
          "type": "string"
        },
        {
          "name": "user_address",
          "type": "string"
        }
      ],
      "payable": false,
      "stateMutability": "view",
      "type": "function"
    },
    {
      "constant": true,
      "inputs": [],
      "name": "getLatest_b1_res",
      "outputs": [
        {
          "name": "",
          "type": "bool"
        },
        {
          "name": "",
          "type": "bool"
        },
        {
          "name": "",
          "type": "bool"
        },
        {
          "name": "",
          "type": "bool"
        },
        {
          "name": "",
          "type": "bool"
        },
        {
          "name": "",
          "type": "bool"
        }
      ],
      "payable": false,
      "stateMutability": "view",
      "type": "function"
    },
    {
      "constant": false,
      "inputs": [
        {
          "name": "_firstname",
          "type": "bool"
        },
        {
          "name": "_middlename",
          "type": "bool"
        },
        {
          "name": "_lastname",
          "type": "bool"
        },
        {
          "name": "_dateofbirth",
          "type": "bool"
        },
        {
          "name": "_children",
          "type": "bool"
        },
        {
          "name": "_user_address",
          "type": "bool"
        }
      ],
      "name": "addB3res",
      "outputs": [],
      "payable": false,
      "stateMutability": "nonpayable",
      "type": "function"
    },
    {
      "constant": true,
      "inputs": [],
      "name": "b2_result_count",
      "outputs": [
        {
          "name": "",
          "type": "uint256"
        }
      ],
      "payable": false,
      "stateMutability": "view",
      "type": "function"
    },
    {
      "constant": false,
      "inputs": [
        {
          "name": "_firstname",
          "type": "bool"
        },
        {
          "name": "_middlename",
          "type": "bool"
        },
        {
          "name": "_lastname",
          "type": "bool"
        },
        {
          "name": "_dateofbirth",
          "type": "bool"
        },
        {
          "name": "_children",
          "type": "bool"
        },
        {
          "name": "_user_address",
          "type": "bool"
        }
      ],
      "name": "addB2res",
      "outputs": [],
      "payable": false,
      "stateMutability": "nonpayable",
      "type": "function"
    },
    {
      "constant": false,
      "inputs": [
        {
          "name": "firstname",
          "type": "bool"
        },
        {
          "name": "middlename",
          "type": "bool"
        },
        {
          "name": "lastname",
          "type": "bool"
        },
        {
          "name": "dateofbirth",
          "type": "bool"
        },
        {
          "name": "children",
          "type": "bool"
        },
        {
          "name": "user_address",
          "type": "bool"
        },
        {
          "name": "status",
          "type": "string"
        }
      ],
      "name": "B4response",
      "outputs": [],
      "payable": false,
      "stateMutability": "nonpayable",
      "type": "function"
    },
    {
      "constant": true,
      "inputs": [],
      "name": "getLatest_b2",
      "outputs": [
        {
          "name": "",
          "type": "string"
        },
        {
          "name": "",
          "type": "string"
        },
        {
          "name": "",
          "type": "string"
        },
        {
          "name": "",
          "type": "string"
        },
        {
          "name": "",
          "type": "string"
        },
        {
          "name": "",
          "type": "string"
        }
      ],
      "payable": false,
      "stateMutability": "view",
      "type": "function"
    },
    {
      "constant": true,
      "inputs": [],
      "name": "getLatest_b2_res",
      "outputs": [
        {
          "name": "",
          "type": "bool"
        },
        {
          "name": "",
          "type": "bool"
        },
        {
          "name": "",
          "type": "bool"
        },
        {
          "name": "",
          "type": "bool"
        },
        {
          "name": "",
          "type": "bool"
        },
        {
          "name": "",
          "type": "bool"
        }
      ],
      "payable": false,
      "stateMutability": "view",
      "type": "function"
    },
    {
      "constant": false,
      "inputs": [
        {
          "name": "_firstname",
          "type": "bool"
        },
        {
          "name": "_middlename",
          "type": "bool"
        },
        {
          "name": "_lastname",
          "type": "bool"
        },
        {
          "name": "_dateofbirth",
          "type": "bool"
        },
        {
          "name": "_children",
          "type": "bool"
        },
        {
          "name": "_user_address",
          "type": "bool"
        }
      ],
      "name": "addB1res",
      "outputs": [],
      "payable": false,
      "stateMutability": "nonpayable",
      "type": "function"
    },
    {
      "constant": false,
      "inputs": [
        {
          "name": "firstname",
          "type": "string"
        },
        {
          "name": "middlename",
          "type": "string"
        },
        {
          "name": "lastname",
          "type": "string"
        },
        {
          "name": "dateofbirth",
          "type": "string"
        },
        {
          "name": "children",
          "type": "string"
        },
        {
          "name": "user_address",
          "type": "string"
        },
        {
          "name": "status",
          "type": "string"
        }
      ],
      "name": "B4data",
      "outputs": [],
      "payable": false,
      "stateMutability": "nonpayable",
      "type": "function"
    },
    {
      "constant": true,
      "inputs": [
        {
          "name": "",
          "type": "uint256"
        }
      ],
      "name": "b3_res",
      "outputs": [
        {
          "name": "firstname",
          "type": "bool"
        },
        {
          "name": "middlename",
          "type": "bool"
        },
        {
          "name": "lastname",
          "type": "bool"
        },
        {
          "name": "dateofbirth",
          "type": "bool"
        },
        {
          "name": "children",
          "type": "bool"
        },
        {
          "name": "user_address",
          "type": "bool"
        }
      ],
      "payable": false,
      "stateMutability": "view",
      "type": "function"
    },
    {
      "constant": true,
      "inputs": [
        {
          "name": "",
          "type": "uint256"
        }
      ],
      "name": "b3",
      "outputs": [
        {
          "name": "firstname",
          "type": "string"
        },
        {
          "name": "middlename",
          "type": "string"
        },
        {
          "name": "lastname",
          "type": "string"
        },
        {
          "name": "dateofbirth",
          "type": "string"
        },
        {
          "name": "children",
          "type": "string"
        },
        {
          "name": "user_address",
          "type": "string"
        }
      ],
      "payable": false,
      "stateMutability": "view",
      "type": "function"
    },
    {
      "constant": true,
      "inputs": [],
      "name": "getLatest_b3",
      "outputs": [
        {
          "name": "",
          "type": "string"
        },
        {
          "name": "",
          "type": "string"
        },
        {
          "name": "",
          "type": "string"
        },
        {
          "name": "",
          "type": "string"
        },
        {
          "name": "",
          "type": "string"
        },
        {
          "name": "",
          "type": "string"
        }
      ],
      "payable": false,
      "stateMutability": "view",
      "type": "function"
    },
    {
      "constant": false,
      "inputs": [
        {
          "name": "_firstname",
          "type": "string"
        },
        {
          "name": "_middlename",
          "type": "string"
        },
        {
          "name": "_lastname",
          "type": "string"
        },
        {
          "name": "_dateofbirth",
          "type": "string"
        },
        {
          "name": "_children",
          "type": "string"
        },
        {
          "name": "_user_address",
          "type": "string"
        }
      ],
      "name": "addB2",
      "outputs": [],
      "payable": false,
      "stateMutability": "nonpayable",
      "type": "function"
    },
    {
      "constant": false,
      "inputs": [
        {
          "name": "_firstname",
          "type": "string"
        },
        {
          "name": "_middlename",
          "type": "string"
        },
        {
          "name": "_lastname",
          "type": "string"
        },
        {
          "name": "_dateofbirth",
          "type": "string"
        },
        {
          "name": "_children",
          "type": "string"
        },
        {
          "name": "_user_address",
          "type": "string"
        }
      ],
      "name": "addB3",
      "outputs": [],
      "payable": false,
      "stateMutability": "nonpayable",
      "type": "function"
    },
    {
      "constant": true,
      "inputs": [],
      "name": "b3_result_count",
      "outputs": [
        {
          "name": "",
          "type": "uint256"
        }
      ],
      "payable": false,
      "stateMutability": "view",
      "type": "function"
    },
    {
      "constant": true,
      "inputs": [
        {
          "name": "",
          "type": "uint256"
        }
      ],
      "name": "b2",
      "outputs": [
        {
          "name": "firstname",
          "type": "string"
        },
        {
          "name": "middlename",
          "type": "string"
        },
        {
          "name": "lastname",
          "type": "string"
        },
        {
          "name": "dateofbirth",
          "type": "string"
        },
        {
          "name": "children",
          "type": "string"
        },
        {
          "name": "user_address",
          "type": "string"
        }
      ],
      "payable": false,
      "stateMutability": "view",
      "type": "function"
    },
    {
      "constant": true,
      "inputs": [
        {
          "name": "",
          "type": "uint256"
        }
      ],
      "name": "b1_res",
      "outputs": [
        {
          "name": "firstname",
          "type": "bool"
        },
        {
          "name": "middlename",
          "type": "bool"
        },
        {
          "name": "lastname",
          "type": "bool"
        },
        {
          "name": "dateofbirth",
          "type": "bool"
        },
        {
          "name": "children",
          "type": "bool"
        },
        {
          "name": "user_address",
          "type": "bool"
        }
      ],
      "payable": false,
      "stateMutability": "view",
      "type": "function"
    },
    {
      "constant": false,
      "inputs": [
        {
          "name": "_firstname",
          "type": "string"
        },
        {
          "name": "_middlename",
          "type": "string"
        },
        {
          "name": "_lastname",
          "type": "string"
        },
        {
          "name": "_dateofbirth",
          "type": "string"
        },
        {
          "name": "_children",
          "type": "string"
        },
        {
          "name": "_user_address",
          "type": "string"
        }
      ],
      "name": "addB1",
      "outputs": [],
      "payable": false,
      "stateMutability": "nonpayable",
      "type": "function"
    },
    {
      "constant": true,
      "inputs": [],
      "name": "b2_data_count",
      "outputs": [
        {
          "name": "",
          "type": "uint256"
        }
      ],
      "payable": false,
      "stateMutability": "view",
      "type": "function"
    },
    {
      "constant": true,
      "inputs": [],
      "name": "b1_data_count",
      "outputs": [
        {
          "name": "",
          "type": "uint256"
        }
      ],
      "payable": false,
      "stateMutability": "view",
      "type": "function"
    },
    {
      "anonymous": false,
      "inputs": [
        {
          "indexed": true,
          "name": "requestId",
          "type": "uint256"
        },
        {
          "indexed": false,
          "name": "firstname",
          "type": "string"
        },
        {
          "indexed": false,
          "name": "middlename",
          "type": "string"
        },
        {
          "indexed": false,
          "name": "lastname",
          "type": "string"
        },
        {
          "indexed": false,
          "name": "dateofbirth",
          "type": "string"
        },
        {
          "indexed": false,
          "name": "children",
          "type": "string"
        },
        {
          "indexed": false,
          "name": "user_address",
          "type": "string"
        },
        {
          "indexed": false,
          "name": "status",
          "type": "string"
        }
      ],
      "name": "B4request",
      "type": "event"
    },
    {
      "anonymous": false,
      "inputs": [
        {
          "indexed": true,
          "name": "requestId",
          "type": "uint256"
        },
        {
          "indexed": false,
          "name": "firstname",
          "type": "bool"
        },
        {
          "indexed": false,
          "name": "middlename",
          "type": "bool"
        },
        {
          "indexed": false,
          "name": "lastname",
          "type": "bool"
        },
        {
          "indexed": false,
          "name": "dateofbirth",
          "type": "bool"
        },
        {
          "indexed": false,
          "name": "children",
          "type": "bool"
        },
        {
          "indexed": false,
          "name": "user_address",
          "type": "bool"
        },
        {
          "indexed": false,
          "name": "status",
          "type": "string"
        }
      ],
      "name": "B4res",
      "type": "event"
    },
    {
      "anonymous": false,
      "inputs": [
        {
          "indexed": true,
          "name": "id",
          "type": "uint256"
        },
        {
          "indexed": false,
          "name": "firstname",
          "type": "string"
        },
        {
          "indexed": false,
          "name": "middlename",
          "type": "string"
        },
        {
          "indexed": false,
          "name": "lastname",
          "type": "string"
        },
        {
          "indexed": false,
          "name": "dateofbirth",
          "type": "string"
        },
        {
          "indexed": false,
          "name": "children",
          "type": "string"
        },
        {
          "indexed": false,
          "name": "user_address",
          "type": "string"
        }
      ],
      "name": "b3_data_request",
      "type": "event"
    },
    {
      "anonymous": false,
      "inputs": [
        {
          "indexed": true,
          "name": "id",
          "type": "uint256"
        },
        {
          "indexed": false,
          "name": "firstname",
          "type": "bool"
        },
        {
          "indexed": false,
          "name": "middlename",
          "type": "bool"
        },
        {
          "indexed": false,
          "name": "lastname",
          "type": "bool"
        },
        {
          "indexed": false,
          "name": "dateofbirth",
          "type": "bool"
        },
        {
          "indexed": false,
          "name": "children",
          "type": "bool"
        },
        {
          "indexed": false,
          "name": "user_address",
          "type": "bool"
        }
      ],
      "name": "b3_data_response",
      "type": "event"
    },
    {
      "anonymous": false,
      "inputs": [
        {
          "indexed": true,
          "name": "id",
          "type": "uint256"
        },
        {
          "indexed": false,
          "name": "firstname",
          "type": "string"
        },
        {
          "indexed": false,
          "name": "middlename",
          "type": "string"
        },
        {
          "indexed": false,
          "name": "lastname",
          "type": "string"
        },
        {
          "indexed": false,
          "name": "dateofbirth",
          "type": "string"
        },
        {
          "indexed": false,
          "name": "children",
          "type": "string"
        },
        {
          "indexed": false,
          "name": "user_address",
          "type": "string"
        }
      ],
      "name": "b2_data_request",
      "type": "event"
    },
    {
      "anonymous": false,
      "inputs": [
        {
          "indexed": true,
          "name": "id",
          "type": "uint256"
        },
        {
          "indexed": false,
          "name": "firstname",
          "type": "bool"
        },
        {
          "indexed": false,
          "name": "middlename",
          "type": "bool"
        },
        {
          "indexed": false,
          "name": "lastname",
          "type": "bool"
        },
        {
          "indexed": false,
          "name": "dateofbirth",
          "type": "bool"
        },
        {
          "indexed": false,
          "name": "children",
          "type": "bool"
        },
        {
          "indexed": false,
          "name": "user_address",
          "type": "bool"
        }
      ],
      "name": "b2_data_response",
      "type": "event"
    },
    {
      "anonymous": false,
      "inputs": [
        {
          "indexed": true,
          "name": "id",
          "type": "uint256"
        },
        {
          "indexed": false,
          "name": "firstname",
          "type": "string"
        },
        {
          "indexed": false,
          "name": "middlename",
          "type": "string"
        },
        {
          "indexed": false,
          "name": "lastname",
          "type": "string"
        },
        {
          "indexed": false,
          "name": "dateofbirth",
          "type": "string"
        },
        {
          "indexed": false,
          "name": "children",
          "type": "string"
        },
        {
          "indexed": false,
          "name": "user_address",
          "type": "string"
        }
      ],
      "name": "b1_data_request",
      "type": "event"
    },
    {
      "anonymous": false,
      "inputs": [
        {
          "indexed": true,
          "name": "id",
          "type": "uint256"
        },
        {
          "indexed": false,
          "name": "firstname",
          "type": "bool"
        },
        {
          "indexed": false,
          "name": "middlename",
          "type": "bool"
        },
        {
          "indexed": false,
          "name": "lastname",
          "type": "bool"
        },
        {
          "indexed": false,
          "name": "dateofbirth",
          "type": "bool"
        },
        {
          "indexed": false,
          "name": "children",
          "type": "bool"
        },
        {
          "indexed": false,
          "name": "user_address",
          "type": "bool"
        }
      ],
      "name": "b1_data_response",
      "type": "event"
    }
  ],
  "bytecode": "0x6080604052600080556000600155600060045560006005556000600855600060095534801561002d57600080fd5b506159a6806200003e6000396000f3fe608060405234801561001057600080fd5b506004361061018e5760003560e01c80636e13ceb8116100de578063c1183bc211610097578063e2a4fd7711610071578063e2a4fd771461221e578063eb7393751461229b578063f849d45c14612649578063f8ee55d1146126675761018e565b8063c1183bc214611b8f578063d41310e814611f3d578063dabade8414611f5b5761018e565b80636e13ceb814610d51578063861f1e4214610dbd5780639b0b83c714611202578063b0bfd73b1461127f578063b45058b814611542578063bff72c22146117e15761018e565b80633a92cbbb1161014b5780635af84801116101255780635af84801146108ea5780635ee23a3e14610956578063610fe04714610a59578063663f408f14610cf85761018e565b80633a92cbbb1461080757806348ad2ea1146108605780634e605a43146108cc5761018e565b806305c897301461019357806310ad4b3514610210578063167d06011461022e5780631e1768b71461024c5780631ef212e7146102a55780633051d23814610544575b600080fd5b6101bf600480360360208110156101a957600080fd5b8101908080359060200190929190505050612685565b60405180871515151581526020018615151515815260200185151515158152602001841515151581526020018315151515815260200182151515158152602001965050505050505060405180910390f35b61021861270f565b6040518082815260200191505060405180910390f35b610236612715565b6040518082815260200191505060405180910390f35b61025461271b565b60405180871515151581526020018615151515815260200185151515158152602001841515151581526020018315151515815260200182151515158152602001965050505050505060405180910390f35b6102ad612840565b6040518080602001806020018060200180602001806020018060200187810387528d818151815260200191508051906020019080838360005b838110156103015780820151818401526020810190506102e6565b50505050905090810190601f16801561032e5780820380516001836020036101000a031916815260200191505b5087810386528c818151815260200191508051906020019080838360005b8381101561036757808201518184015260208101905061034c565b50505050905090810190601f1680156103945780820380516001836020036101000a031916815260200191505b5087810385528b818151815260200191508051906020019080838360005b838110156103cd5780820151818401526020810190506103b2565b50505050905090810190601f1680156103fa5780820380516001836020036101000a031916815260200191505b5087810384528a818151815260200191508051906020019080838360005b83811015610433578082015181840152602081019050610418565b50505050905090810190601f1680156104605780820380516001836020036101000a031916815260200191505b50878103835289818151815260200191508051906020019080838360005b8381101561049957808201518184015260208101905061047e565b50505050905090810190601f1680156104c65780820380516001836020036101000a031916815260200191505b50878103825288818151815260200191508051906020019080838360005b838110156104ff5780820151818401526020810190506104e4565b50505050905090810190601f16801561052c5780820380516001836020036101000a031916815260200191505b509c5050505050505050505050505060405180910390f35b6105706004803603602081101561055a57600080fd5b8101908080359060200190929190505050612ca1565b6040518080602001806020018060200180602001806020018060200187810387528d818151815260200191508051906020019080838360005b838110156105c45780820151818401526020810190506105a9565b50505050905090810190601f1680156105f15780820380516001836020036101000a031916815260200191505b5087810386528c818151815260200191508051906020019080838360005b8381101561062a57808201518184015260208101905061060f565b50505050905090810190601f1680156106575780820380516001836020036101000a031916815260200191505b5087810385528b818151815260200191508051906020019080838360005b83811015610690578082015181840152602081019050610675565b50505050905090810190601f1680156106bd5780820380516001836020036101000a031916815260200191505b5087810384528a818151815260200191508051906020019080838360005b838110156106f65780820151818401526020810190506106db565b50505050905090810190601f1680156107235780820380516001836020036101000a031916815260200191505b50878103835289818151815260200191508051906020019080838360005b8381101561075c578082015181840152602081019050610741565b50505050905090810190601f1680156107895780820380516001836020036101000a031916815260200191505b50878103825288818151815260200191508051906020019080838360005b838110156107c25780820151818401526020810190506107a7565b50505050905090810190601f1680156107ef5780820380516001836020036101000a031916815260200191505b509c5050505050505050505050505060405180910390f35b61080f61306d565b60405180871515151581526020018615151515815260200185151515158152602001841515151581526020018315151515815260200182151515158152602001965050505050505060405180910390f35b6108ca600480360360c081101561087657600080fd5b81019080803515159060200190929190803515159060200190929190803515159060200190929190803515159060200190929190803515159060200190929190803515159060200190929190505050613192565b005b6108d4613337565b6040518082815260200191505060405180910390f35b610954600480360360c081101561090057600080fd5b8101908080351515906020019092919080351515906020019092919080351515906020019092919080351515906020019092919080351515906020019092919080351515906020019092919050505061333d565b005b610a57600480360360e081101561096c57600080fd5b81019080803515159060200190929190803515159060200190929190803515159060200190929190803515159060200190929190803515159060200190929190803515159060200190929190803590602001906401000000008111156109d157600080fd5b8201836020820111156109e357600080fd5b80359060200191846001830284011164010000000083111715610a0557600080fd5b91908080601f016020809104026020016040519081016040528093929190818152602001838380828437600081840152601f19601f8201169050808301925050505050505091929192905050506134e2565b005b610a616135d2565b6040518080602001806020018060200180602001806020018060200187810387528d818151815260200191508051906020019080838360005b83811015610ab5578082015181840152602081019050610a9a565b50505050905090810190601f168015610ae25780820380516001836020036101000a031916815260200191505b5087810386528c818151815260200191508051906020019080838360005b83811015610b1b578082015181840152602081019050610b00565b50505050905090810190601f168015610b485780820380516001836020036101000a031916815260200191505b5087810385528b818151815260200191508051906020019080838360005b83811015610b81578082015181840152602081019050610b66565b50505050905090810190601f168015610bae5780820380516001836020036101000a031916815260200191505b5087810384528a818151815260200191508051906020019080838360005b83811015610be7578082015181840152602081019050610bcc565b50505050905090810190601f168015610c145780820380516001836020036101000a031916815260200191505b50878103835289818151815260200191508051906020019080838360005b83811015610c4d578082015181840152602081019050610c32565b50505050905090810190601f168015610c7a5780820380516001836020036101000a031916815260200191505b50878103825288818151815260200191508051906020019080838360005b83811015610cb3578082015181840152602081019050610c98565b50505050905090810190601f168015610ce05780820380516001836020036101000a031916815260200191505b509c5050505050505050505050505060405180910390f35b610d00613a39565b60405180871515151581526020018615151515815260200185151515158152602001841515151581526020018315151515815260200182151515158152602001965050505050505060405180910390f35b610dbb600480360360c0811015610d6757600080fd5b81019080803515159060200190929190803515159060200190929190803515159060200190929190803515159060200190929190803515159060200190929190803515159060200190929190505050613b5e565b005b611200600480360360e0811015610dd357600080fd5b8101908080359060200190640100000000811115610df057600080fd5b820183602082011115610e0257600080fd5b80359060200191846001830284011164010000000083111715610e2457600080fd5b91908080601f016020809104026020016040519081016040528093929190818152602001838380828437600081840152601f19601f82011690508083019250505050505050919291929080359060200190640100000000811115610e8757600080fd5b820183602082011115610e9957600080fd5b80359060200191846001830284011164010000000083111715610ebb57600080fd5b91908080601f016020809104026020016040519081016040528093929190818152602001838380828437600081840152601f19601f82011690508083019250505050505050919291929080359060200190640100000000811115610f1e57600080fd5b820183602082011115610f3057600080fd5b80359060200191846001830284011164010000000083111715610f5257600080fd5b91908080601f016020809104026020016040519081016040528093929190818152602001838380828437600081840152601f19601f82011690508083019250505050505050919291929080359060200190640100000000811115610fb557600080fd5b820183602082011115610fc757600080fd5b80359060200191846001830284011164010000000083111715610fe957600080fd5b91908080601f016020809104026020016040519081016040528093929190818152602001838380828437600081840152601f19601f8201169050808301925050505050505091929192908035906020019064010000000081111561104c57600080fd5b82018360208201111561105e57600080fd5b8035906020019184600183028401116401000000008311171561108057600080fd5b91908080601f016020809104026020016040519081016040528093929190818152602001838380828437600081840152601f19601f820116905080830192505050505050509192919290803590602001906401000000008111156110e357600080fd5b8201836020820111156110f557600080fd5b8035906020019184600183028401116401000000008311171561111757600080fd5b91908080601f016020809104026020016040519081016040528093929190818152602001838380828437600081840152601f19601f8201169050808301925050505050505091929192908035906020019064010000000081111561117a57600080fd5b82018360208201111561118c57600080fd5b803590602001918460018302840111640100000000831117156111ae57600080fd5b91908080601f016020809104026020016040519081016040528093929190818152602001838380828437600081840152601f19601f820116905080830192505050505050509192919290505050613d03565b005b61122e6004803603602081101561121857600080fd5b810190808035906020019092919050505061404b565b60405180871515151581526020018615151515815260200185151515158152602001841515151581526020018315151515815260200182151515158152602001965050505050505060405180910390f35b6112ab6004803603602081101561129557600080fd5b81019080803590602001909291905050506140d5565b6040518080602001806020018060200180602001806020018060200187810387528d818151815260200191508051906020019080838360005b838110156112ff5780820151818401526020810190506112e4565b50505050905090810190601f16801561132c5780820380516001836020036101000a031916815260200191505b5087810386528c818151815260200191508051906020019080838360005b8381101561136557808201518184015260208101905061134a565b50505050905090810190601f1680156113925780820380516001836020036101000a031916815260200191505b5087810385528b818151815260200191508051906020019080838360005b838110156113cb5780820151818401526020810190506113b0565b50505050905090810190601f1680156113f85780820380516001836020036101000a031916815260200191505b5087810384528a818151815260200191508051906020019080838360005b83811015611431578082015181840152602081019050611416565b50505050905090810190601f16801561145e5780820380516001836020036101000a031916815260200191505b50878103835289818151815260200191508051906020019080838360005b8381101561149757808201518184015260208101905061147c565b50505050905090810190601f1680156114c45780820380516001836020036101000a031916815260200191505b50878103825288818151815260200191508051906020019080838360005b838110156114fd5780820151818401526020810190506114e2565b50505050905090810190601f16801561152a5780820380516001836020036101000a031916815260200191505b509c5050505050505050505050505060405180910390f35b61154a6144a1565b6040518080602001806020018060200180602001806020018060200187810387528d818151815260200191508051906020019080838360005b8381101561159e578082015181840152602081019050611583565b50505050905090810190601f1680156115cb5780820380516001836020036101000a031916815260200191505b5087810386528c818151815260200191508051906020019080838360005b838110156116045780820151818401526020810190506115e9565b50505050905090810190601f1680156116315780820380516001836020036101000a031916815260200191505b5087810385528b818151815260200191508051906020019080838360005b8381101561166a57808201518184015260208101905061164f565b50505050905090810190601f1680156116975780820380516001836020036101000a031916815260200191505b5087810384528a818151815260200191508051906020019080838360005b838110156116d05780820151818401526020810190506116b5565b50505050905090810190601f1680156116fd5780820380516001836020036101000a031916815260200191505b50878103835289818151815260200191508051906020019080838360005b8381101561173657808201518184015260208101905061171b565b50505050905090810190601f1680156117635780820380516001836020036101000a031916815260200191505b50878103825288818151815260200191508051906020019080838360005b8381101561179c578082015181840152602081019050611781565b50505050905090810190601f1680156117c95780820380516001836020036101000a031916815260200191505b509c5050505050505050505050505060405180910390f35b611b8d600480360360c08110156117f757600080fd5b810190808035906020019064010000000081111561181457600080fd5b82018360208201111561182657600080fd5b8035906020019184600183028401116401000000008311171561184857600080fd5b91908080601f016020809104026020016040519081016040528093929190818152602001838380828437600081840152601f19601f820116905080830192505050505050509192919290803590602001906401000000008111156118ab57600080fd5b8201836020820111156118bd57600080fd5b803590602001918460018302840111640100000000831117156118df57600080fd5b91908080601f016020809104026020016040519081016040528093929190818152602001838380828437600081840152601f19601f8201169050808301925050505050505091929192908035906020019064010000000081111561194257600080fd5b82018360208201111561195457600080fd5b8035906020019184600183028401116401000000008311171561197657600080fd5b91908080601f016020809104026020016040519081016040528093929190818152602001838380828437600081840152601f19601f820116905080830192505050505050509192919290803590602001906401000000008111156119d957600080fd5b8201836020820111156119eb57600080fd5b80359060200191846001830284011164010000000083111715611a0d57600080fd5b91908080601f016020809104026020016040519081016040528093929190818152602001838380828437600081840152601f19601f82011690508083019250505050505050919291929080359060200190640100000000811115611a7057600080fd5b820183602082011115611a8257600080fd5b80359060200191846001830284011164010000000083111715611aa457600080fd5b91908080601f016020809104026020016040519081016040528093929190818152602001838380828437600081840152601f19601f82011690508083019250505050505050919291929080359060200190640100000000811115611b0757600080fd5b820183602082011115611b1957600080fd5b80359060200191846001830284011164010000000083111715611b3b57600080fd5b91908080601f016020809104026020016040519081016040528093929190818152602001838380828437600081840152601f19601f820116905080830192505050505050509192919290505050614908565b005b611f3b600480360360c0811015611ba557600080fd5b8101908080359060200190640100000000811115611bc257600080fd5b820183602082011115611bd457600080fd5b80359060200191846001830284011164010000000083111715611bf657600080fd5b91908080601f016020809104026020016040519081016040528093929190818152602001838380828437600081840152601f19601f82011690508083019250505050505050919291929080359060200190640100000000811115611c5957600080fd5b820183602082011115611c6b57600080fd5b80359060200191846001830284011164010000000083111715611c8d57600080fd5b91908080601f016020809104026020016040519081016040528093929190818152602001838380828437600081840152601f19601f82011690508083019250505050505050919291929080359060200190640100000000811115611cf057600080fd5b820183602082011115611d0257600080fd5b80359060200191846001830284011164010000000083111715611d2457600080fd5b91908080601f016020809104026020016040519081016040528093929190818152602001838380828437600081840152601f19601f82011690508083019250505050505050919291929080359060200190640100000000811115611d8757600080fd5b820183602082011115611d9957600080fd5b80359060200191846001830284011164010000000083111715611dbb57600080fd5b91908080601f016020809104026020016040519081016040528093929190818152602001838380828437600081840152601f19601f82011690508083019250505050505050919291929080359060200190640100000000811115611e1e57600080fd5b820183602082011115611e3057600080fd5b80359060200191846001830284011164010000000083111715611e5257600080fd5b91908080601f016020809104026020016040519081016040528093929190818152602001838380828437600081840152601f19601f82011690508083019250505050505050919291929080359060200190640100000000811115611eb557600080fd5b820183602082011115611ec757600080fd5b80359060200191846001830284011164010000000083111715611ee957600080fd5b91908080601f016020809104026020016040519081016040528093929190818152602001838380828437600081840152601f19601f820116905080830192505050505050509192919290505050614cd5565b005b611f456150a2565b6040518082815260200191505060405180910390f35b611f8760048036036020811015611f7157600080fd5b81019080803590602001909291905050506150a8565b6040518080602001806020018060200180602001806020018060200187810387528d818151815260200191508051906020019080838360005b83811015611fdb578082015181840152602081019050611fc0565b50505050905090810190601f1680156120085780820380516001836020036101000a031916815260200191505b5087810386528c818151815260200191508051906020019080838360005b83811015612041578082015181840152602081019050612026565b50505050905090810190601f16801561206e5780820380516001836020036101000a031916815260200191505b5087810385528b818151815260200191508051906020019080838360005b838110156120a757808201518184015260208101905061208c565b50505050905090810190601f1680156120d45780820380516001836020036101000a031916815260200191505b5087810384528a818151815260200191508051906020019080838360005b8381101561210d5780820151818401526020810190506120f2565b50505050905090810190601f16801561213a5780820380516001836020036101000a031916815260200191505b50878103835289818151815260200191508051906020019080838360005b83811015612173578082015181840152602081019050612158565b50505050905090810190601f1680156121a05780820380516001836020036101000a031916815260200191505b50878103825288818151815260200191508051906020019080838360005b838110156121d95780820151818401526020810190506121be565b50505050905090810190601f1680156122065780820380516001836020036101000a031916815260200191505b509c5050505050505050505050505060405180910390f35b61224a6004803603602081101561223457600080fd5b8101908080359060200190929190505050615474565b60405180871515151581526020018615151515815260200185151515158152602001841515151581526020018315151515815260200182151515158152602001965050505050505060405180910390f35b612647600480360360c08110156122b157600080fd5b81019080803590602001906401000000008111156122ce57600080fd5b8201836020820111156122e057600080fd5b8035906020019184600183028401116401000000008311171561230257600080fd5b91908080601f016020809104026020016040519081016040528093929190818152602001838380828437600081840152601f19601f8201169050808301925050505050505091929192908035906020019064010000000081111561236557600080fd5b82018360208201111561237757600080fd5b8035906020019184600183028401116401000000008311171561239957600080fd5b91908080601f016020809104026020016040519081016040528093929190818152602001838380828437600081840152601f19601f820116905080830192505050505050509192919290803590602001906401000000008111156123fc57600080fd5b82018360208201111561240e57600080fd5b8035906020019184600183028401116401000000008311171561243057600080fd5b91908080601f016020809104026020016040519081016040528093929190818152602001838380828437600081840152601f19601f8201169050808301925050505050505091929192908035906020019064010000000081111561249357600080fd5b8201836020820111156124a557600080fd5b803590602001918460018302840111640100000000831117156124c757600080fd5b91908080601f016020809104026020016040519081016040528093929190818152602001838380828437600081840152601f19601f8201169050808301925050505050505091929192908035906020019064010000000081111561252a57600080fd5b82018360208201111561253c57600080fd5b8035906020019184600183028401116401000000008311171561255e57600080fd5b91908080601f016020809104026020016040519081016040528093929190818152602001838380828437600081840152601f19601f820116905080830192505050505050509192919290803590602001906401000000008111156125c157600080fd5b8201836020820111156125d357600080fd5b803590602001918460018302840111640100000000831117156125f557600080fd5b91908080601f016020809104026020016040519081016040528093929190818152602001838380828437600081840152601f19601f8201169050808301925050505050505091929192905050506154fe565b005b6126516158c9565b6040518082815260200191505060405180910390f35b61266f6158cf565b6040518082815260200191505060405180910390f35b60076020528060005260406000206000915090508060000160009054906101000a900460ff16908060000160019054906101000a900460ff16908060000160029054906101000a900460ff16908060000160039054906101000a900460ff16908060000160049054906101000a900460ff16908060000160059054906101000a900460ff16905086565b60085481565b60015481565b6000806000806000806000600b6000600954815260200190815260200160002060000160009054906101000a900460ff1690506000600b6000600954815260200190815260200160002060000160019054906101000a900460ff1690506000600b6000600954815260200190815260200160002060000160029054906101000a900460ff1690506000600b6000600954815260200190815260200160002060000160039054906101000a900460ff1690506000600b6000600954815260200190815260200160002060000160049054906101000a900460ff1690506000600b6000600954815260200190815260200160002060000160059054906101000a900460ff1690508585858585859b509b509b509b509b509b50505050505050909192939495565b606080606080606080606060026000805481526020019081526020016000206000018054600181600116156101000203166002900480601f0160208091040260200160405190810160405280929190818152602001828054600181600116156101000203166002900480156128f65780601f106128cb576101008083540402835291602001916128f6565b820191906000526020600020905b8154815290600101906020018083116128d957829003601f168201915b50505050509050606060026000805481526020019081526020016000206001018054600181600116156101000203166002900480601f0160208091040260200160405190810160405280929190818152602001828054600181600116156101000203166002900480156129aa5780601f1061297f576101008083540402835291602001916129aa565b820191906000526020600020905b81548152906001019060200180831161298d57829003601f168201915b50505050509050606060026000805481526020019081526020016000206002018054600181600116156101000203166002900480601f016020809104026020016040519081016040528092919081815260200182805460018160011615610100020316600290048015612a5e5780601f10612a3357610100808354040283529160200191612a5e565b820191906000526020600020905b815481529060010190602001808311612a4157829003601f168201915b50505050509050606060026000805481526020019081526020016000206003018054600181600116156101000203166002900480601f016020809104026020016040519081016040528092919081815260200182805460018160011615610100020316600290048015612b125780601f10612ae757610100808354040283529160200191612b12565b820191906000526020600020905b815481529060010190602001808311612af557829003601f168201915b50505050509050606060026000805481526020019081526020016000206004018054600181600116156101000203166002900480601f016020809104026020016040519081016040528092919081815260200182805460018160011615610100020316600290048015612bc65780601f10612b9b57610100808354040283529160200191612bc6565b820191906000526020600020905b815481529060010190602001808311612ba957829003601f168201915b50505050509050606060026000805481526020019081526020016000206005018054600181600116156101000203166002900480601f016020809104026020016040519081016040528092919081815260200182805460018160011615610100020316600290048015612c7a5780601f10612c4f57610100808354040283529160200191612c7a565b820191906000526020600020905b815481529060010190602001808311612c5d57829003601f168201915b505050505090508585858585859b509b509b509b509b509b50505050505050909192939495565b6002602052806000526040600020600091509050806000018054600181600116156101000203166002900480601f016020809104026020016040519081016040528092919081815260200182805460018160011615610100020316600290048015612d4d5780601f10612d2257610100808354040283529160200191612d4d565b820191906000526020600020905b815481529060010190602001808311612d3057829003601f168201915b505050505090806001018054600181600116156101000203166002900480601f016020809104026020016040519081016040528092919081815260200182805460018160011615610100020316600290048015612deb5780601f10612dc057610100808354040283529160200191612deb565b820191906000526020600020905b815481529060010190602001808311612dce57829003601f168201915b505050505090806002018054600181600116156101000203166002900480601f016020809104026020016040519081016040528092919081815260200182805460018160011615610100020316600290048015612e895780601f10612e5e57610100808354040283529160200191612e89565b820191906000526020600020905b815481529060010190602001808311612e6c57829003601f168201915b505050505090806003018054600181600116156101000203166002900480601f016020809104026020016040519081016040528092919081815260200182805460018160011615610100020316600290048015612f275780601f10612efc57610100808354040283529160200191612f27565b820191906000526020600020905b815481529060010190602001808311612f0a57829003601f168201915b505050505090806004018054600181600116156101000203166002900480601f016020809104026020016040519081016040528092919081815260200182805460018160011615610100020316600290048015612fc55780601f10612f9a57610100808354040283529160200191612fc5565b820191906000526020600020905b815481529060010190602001808311612fa857829003601f168201915b505050505090806005018054600181600116156101000203166002900480601f0160208091040260200160405190810160405280929190818152602001828054600181600116156101000203166002900480156130635780601f1061303857610100808354040283529160200191613063565b820191906000526020600020905b81548152906001019060200180831161304657829003601f168201915b5050505050905086565b600080600080600080600060036000600154815260200190815260200160002060000160009054906101000a900460ff169050600060036000600154815260200190815260200160002060000160019054906101000a900460ff169050600060036000600154815260200190815260200160002060000160029054906101000a900460ff169050600060036000600154815260200190815260200160002060000160039054906101000a900460ff169050600060036000600154815260200190815260200160002060000160049054906101000a900460ff169050600060036000600154815260200190815260200160002060000160059054906101000a900460ff1690508585858585859b509b509b509b509b509b50505050505050909192939495565b6009600081548092919060010191905055506040518060c0016040528087151581526020018615158152602001851515815260200184151581526020018315158152602001821515815250600b6000600954815260200190815260200160002060008201518160000160006101000a81548160ff02191690831515021790555060208201518160000160016101000a81548160ff02191690831515021790555060408201518160000160026101000a81548160ff02191690831515021790555060608201518160000160036101000a81548160ff02191690831515021790555060808201518160000160046101000a81548160ff02191690831515021790555060a08201518160000160056101000a81548160ff0219169083151502179055509050506009547ff0d966d577ccc159a04b7f9702b99db69e1b279b0bb9b7a655e0fcdeb703d60887878787878760405180871515151581526020018615151515815260200185151515158152602001841515151581526020018315151515815260200182151515158152602001965050505050505060405180910390a2505050505050565b60055481565b6005600081548092919060010191905055506040518060c001604052808715158152602001861515815260200185151581526020018415158152602001831515815260200182151581525060076000600554815260200190815260200160002060008201518160000160006101000a81548160ff02191690831515021790555060208201518160000160016101000a81548160ff02191690831515021790555060408201518160000160026101000a81548160ff02191690831515021790555060608201518160000160036101000a81548160ff02191690831515021790555060808201518160000160046101000a81548160ff02191690831515021790555060a08201518160000160056101000a81548160ff0219169083151502179055509050506005547fc0991a9ad5b25d4df2e4eb635ea75e73c572cfb6e2089ef765771e48dfdfff4187878787878760405180871515151581526020018615151515815260200185151515158152602001841515151581526020018315151515815260200182151515158152602001965050505050505060405180910390a2505050505050565b600c547f0e9a0a0e14c95d85fb63e131779c76f7499d1cc3e0bfbb4833cf8231603ffce9888888888888886040518088151515158152602001871515151581526020018615151515815260200185151515158152602001841515151581526020018315151515815260200180602001828103825283818151815260200191508051906020019080838360005b8381101561358957808201518184015260208101905061356e565b50505050905090810190601f1680156135b65780820380516001836020036101000a031916815260200191505b509850505050505050505060405180910390a250505050505050565b60608060608060608060606006600060045481526020019081526020016000206000018054600181600116156101000203166002900480601f0160208091040260200160405190810160405280929190818152602001828054600181600116156101000203166002900480156136895780601f1061365e57610100808354040283529160200191613689565b820191906000526020600020905b81548152906001019060200180831161366c57829003601f168201915b5050505050905060606006600060045481526020019081526020016000206001018054600181600116156101000203166002900480601f01602080910402602001604051908101604052809291908181526020018280546001816001161561010002031660029004801561373e5780601f106137135761010080835404028352916020019161373e565b820191906000526020600020905b81548152906001019060200180831161372157829003601f168201915b5050505050905060606006600060045481526020019081526020016000206002018054600181600116156101000203166002900480601f0160208091040260200160405190810160405280929190818152602001828054600181600116156101000203166002900480156137f35780601f106137c8576101008083540402835291602001916137f3565b820191906000526020600020905b8154815290600101906020018083116137d657829003601f168201915b5050505050905060606006600060045481526020019081526020016000206003018054600181600116156101000203166002900480601f0160208091040260200160405190810160405280929190818152602001828054600181600116156101000203166002900480156138a85780601f1061387d576101008083540402835291602001916138a8565b820191906000526020600020905b81548152906001019060200180831161388b57829003601f168201915b5050505050905060606006600060045481526020019081526020016000206004018054600181600116156101000203166002900480601f01602080910402602001604051908101604052809291908181526020018280546001816001161561010002031660029004801561395d5780601f106139325761010080835404028352916020019161395d565b820191906000526020600020905b81548152906001019060200180831161394057829003601f168201915b5050505050905060606006600060045481526020019081526020016000206005018054600181600116156101000203166002900480601f016020809104026020016040519081016040528092919081815260200182805460018160011615610100020316600290048015613a125780601f106139e757610100808354040283529160200191613a12565b820191906000526020600020905b8154815290600101906020018083116139f557829003601f168201915b505050505090508585858585859b509b509b509b509b509b50505050505050909192939495565b600080600080600080600060076000600554815260200190815260200160002060000160009054906101000a900460ff169050600060076000600554815260200190815260200160002060000160019054906101000a900460ff169050600060076000600554815260200190815260200160002060000160029054906101000a900460ff169050600060076000600554815260200190815260200160002060000160039054906101000a900460ff169050600060076000600554815260200190815260200160002060000160049054906101000a900460ff169050600060076000600554815260200190815260200160002060000160059054906101000a900460ff1690508585858585859b509b509b509b509b509b50505050505050909192939495565b6001600081548092919060010191905055506040518060c001604052808715158152602001861515815260200185151581526020018415158152602001831515815260200182151581525060036000600154815260200190815260200160002060008201518160000160006101000a81548160ff02191690831515021790555060208201518160000160016101000a81548160ff02191690831515021790555060408201518160000160026101000a81548160ff02191690831515021790555060608201518160000160036101000a81548160ff02191690831515021790555060808201518160000160046101000a81548160ff02191690831515021790555060a08201518160000160056101000a81548160ff0219169083151502179055509050506001547f8d6becc4d59ec4115e8621cd6a66f2301478634aaade3a77d7cb13082641e9ef87878787878760405180871515151581526020018615151515815260200185151515158152602001841515151581526020018315151515815260200182151515158152602001965050505050505060405180910390a2505050505050565b600c60008154809291906001019190505550600c547f07591959f092370ae4d040b5f64d8361eafe6e1d69a426ff64798569f3a57f1388888888888888604051808060200180602001806020018060200180602001806020018060200188810388528f818151815260200191508051906020019080838360005b83811015613d98578082015181840152602081019050613d7d565b50505050905090810190601f168015613dc55780820380516001836020036101000a031916815260200191505b5088810387528e818151815260200191508051906020019080838360005b83811015613dfe578082015181840152602081019050613de3565b50505050905090810190601f168015613e2b5780820380516001836020036101000a031916815260200191505b5088810386528d818151815260200191508051906020019080838360005b83811015613e64578082015181840152602081019050613e49565b50505050905090810190601f168015613e915780820380516001836020036101000a031916815260200191505b5088810385528c818151815260200191508051906020019080838360005b83811015613eca578082015181840152602081019050613eaf565b50505050905090810190601f168015613ef75780820380516001836020036101000a031916815260200191505b5088810384528b818151815260200191508051906020019080838360005b83811015613f30578082015181840152602081019050613f15565b50505050905090810190601f168015613f5d5780820380516001836020036101000a031916815260200191505b5088810383528a818151815260200191508051906020019080838360005b83811015613f96578082015181840152602081019050613f7b565b50505050905090810190601f168015613fc35780820380516001836020036101000a031916815260200191505b50888103825289818151815260200191508051906020019080838360005b83811015613ffc578082015181840152602081019050613fe1565b50505050905090810190601f1680156140295780820380516001836020036101000a031916815260200191505b509e50505050505050505050505050505060405180910390a250505050505050565b600b6020528060005260406000206000915090508060000160009054906101000a900460ff16908060000160019054906101000a900460ff16908060000160029054906101000a900460ff16908060000160039054906101000a900460ff16908060000160049054906101000a900460ff16908060000160059054906101000a900460ff16905086565b600a602052806000526040600020600091509050806000018054600181600116156101000203166002900480601f0160208091040260200160405190810160405280929190818152602001828054600181600116156101000203166002900480156141815780601f1061415657610100808354040283529160200191614181565b820191906000526020600020905b81548152906001019060200180831161416457829003601f168201915b505050505090806001018054600181600116156101000203166002900480601f01602080910402602001604051908101604052809291908181526020018280546001816001161561010002031660029004801561421f5780601f106141f45761010080835404028352916020019161421f565b820191906000526020600020905b81548152906001019060200180831161420257829003601f168201915b505050505090806002018054600181600116156101000203166002900480601f0160208091040260200160405190810160405280929190818152602001828054600181600116156101000203166002900480156142bd5780601f10614292576101008083540402835291602001916142bd565b820191906000526020600020905b8154815290600101906020018083116142a057829003601f168201915b505050505090806003018054600181600116156101000203166002900480601f01602080910402602001604051908101604052809291908181526020018280546001816001161561010002031660029004801561435b5780601f106143305761010080835404028352916020019161435b565b820191906000526020600020905b81548152906001019060200180831161433e57829003601f168201915b505050505090806004018054600181600116156101000203166002900480601f0160208091040260200160405190810160405280929190818152602001828054600181600116156101000203166002900480156143f95780601f106143ce576101008083540402835291602001916143f9565b820191906000526020600020905b8154815290600101906020018083116143dc57829003601f168201915b505050505090806005018054600181600116156101000203166002900480601f0160208091040260200160405190810160405280929190818152602001828054600181600116156101000203166002900480156144975780601f1061446c57610100808354040283529160200191614497565b820191906000526020600020905b81548152906001019060200180831161447a57829003601f168201915b5050505050905086565b6060806060806060806060600a600060085481526020019081526020016000206000018054600181600116156101000203166002900480601f0160208091040260200160405190810160405280929190818152602001828054600181600116156101000203166002900480156145585780601f1061452d57610100808354040283529160200191614558565b820191906000526020600020905b81548152906001019060200180831161453b57829003601f168201915b505050505090506060600a600060085481526020019081526020016000206001018054600181600116156101000203166002900480601f01602080910402602001604051908101604052809291908181526020018280546001816001161561010002031660029004801561460d5780601f106145e25761010080835404028352916020019161460d565b820191906000526020600020905b8154815290600101906020018083116145f057829003601f168201915b505050505090506060600a600060085481526020019081526020016000206002018054600181600116156101000203166002900480601f0160208091040260200160405190810160405280929190818152602001828054600181600116156101000203166002900480156146c25780601f10614697576101008083540402835291602001916146c2565b820191906000526020600020905b8154815290600101906020018083116146a557829003601f168201915b505050505090506060600a600060085481526020019081526020016000206003018054600181600116156101000203166002900480601f0160208091040260200160405190810160405280929190818152602001828054600181600116156101000203166002900480156147775780601f1061474c57610100808354040283529160200191614777565b820191906000526020600020905b81548152906001019060200180831161475a57829003601f168201915b505050505090506060600a600060085481526020019081526020016000206004018054600181600116156101000203166002900480601f01602080910402602001604051908101604052809291908181526020018280546001816001161561010002031660029004801561482c5780601f106148015761010080835404028352916020019161482c565b820191906000526020600020905b81548152906001019060200180831161480f57829003601f168201915b505050505090506060600a600060085481526020019081526020016000206005018054600181600116156101000203166002900480601f0160208091040260200160405190810160405280929190818152602001828054600181600116156101000203166002900480156148e15780601f106148b6576101008083540402835291602001916148e1565b820191906000526020600020905b8154815290600101906020018083116148c457829003601f168201915b505050505090508585858585859b509b509b509b509b509b50505050505050909192939495565b6004600081548092919060010191905055506040518060c001604052808781526020018681526020018581526020018481526020018381526020018281525060066000600454815260200190815260200160002060008201518160000190805190602001906149789291906158d5565b5060208201518160010190805190602001906149959291906158d5565b5060408201518160020190805190602001906149b29291906158d5565b5060608201518160030190805190602001906149cf9291906158d5565b5060808201518160040190805190602001906149ec9291906158d5565b5060a0820151816005019080519060200190614a099291906158d5565b509050506004547fb72300714b969a3fb327db705b51d55714920fcba6b361df86a8bac59bc234878787878787876040518080602001806020018060200180602001806020018060200187810387528d818151815260200191508051906020019080838360005b83811015614a8b578082015181840152602081019050614a70565b50505050905090810190601f168015614ab85780820380516001836020036101000a031916815260200191505b5087810386528c818151815260200191508051906020019080838360005b83811015614af1578082015181840152602081019050614ad6565b50505050905090810190601f168015614b1e5780820380516001836020036101000a031916815260200191505b5087810385528b818151815260200191508051906020019080838360005b83811015614b57578082015181840152602081019050614b3c565b50505050905090810190601f168015614b845780820380516001836020036101000a031916815260200191505b5087810384528a818151815260200191508051906020019080838360005b83811015614bbd578082015181840152602081019050614ba2565b50505050905090810190601f168015614bea5780820380516001836020036101000a031916815260200191505b50878103835289818151815260200191508051906020019080838360005b83811015614c23578082015181840152602081019050614c08565b50505050905090810190601f168015614c505780820380516001836020036101000a031916815260200191505b50878103825288818151815260200191508051906020019080838360005b83811015614c89578082015181840152602081019050614c6e565b50505050905090810190601f168015614cb65780820380516001836020036101000a031916815260200191505b509c5050505050505050505050505060405180910390a2505050505050565b6008600081548092919060010191905055506040518060c0016040528087815260200186815260200185815260200184815260200183815260200182815250600a600060085481526020019081526020016000206000820151816000019080519060200190614d459291906158d5565b506020820151816001019080519060200190614d629291906158d5565b506040820151816002019080519060200190614d7f9291906158d5565b506060820151816003019080519060200190614d9c9291906158d5565b506080820151816004019080519060200190614db99291906158d5565b5060a0820151816005019080519060200190614dd69291906158d5565b509050506008547f78c65e402a71b3a21a8aac015bab2b2235941f9578a851e2b3e79b48dc3801e28787878787876040518080602001806020018060200180602001806020018060200187810387528d818151815260200191508051906020019080838360005b83811015614e58578082015181840152602081019050614e3d565b50505050905090810190601f168015614e855780820380516001836020036101000a031916815260200191505b5087810386528c818151815260200191508051906020019080838360005b83811015614ebe578082015181840152602081019050614ea3565b50505050905090810190601f168015614eeb5780820380516001836020036101000a031916815260200191505b5087810385528b818151815260200191508051906020019080838360005b83811015614f24578082015181840152602081019050614f09565b50505050905090810190601f168015614f515780820380516001836020036101000a031916815260200191505b5087810384528a818151815260200191508051906020019080838360005b83811015614f8a578082015181840152602081019050614f6f565b50505050905090810190601f168015614fb75780820380516001836020036101000a031916815260200191505b50878103835289818151815260200191508051906020019080838360005b83811015614ff0578082015181840152602081019050614fd5565b50505050905090810190601f16801561501d5780820380516001836020036101000a031916815260200191505b50878103825288818151815260200191508051906020019080838360005b8381101561505657808201518184015260208101905061503b565b50505050905090810190601f1680156150835780820380516001836020036101000a031916815260200191505b509c5050505050505050505050505060405180910390a2505050505050565b60095481565b6006602052806000526040600020600091509050806000018054600181600116156101000203166002900480601f0160208091040260200160405190810160405280929190818152602001828054600181600116156101000203166002900480156151545780601f1061512957610100808354040283529160200191615154565b820191906000526020600020905b81548152906001019060200180831161513757829003601f168201915b505050505090806001018054600181600116156101000203166002900480601f0160208091040260200160405190810160405280929190818152602001828054600181600116156101000203166002900480156151f25780601f106151c7576101008083540402835291602001916151f2565b820191906000526020600020905b8154815290600101906020018083116151d557829003601f168201915b505050505090806002018054600181600116156101000203166002900480601f0160208091040260200160405190810160405280929190818152602001828054600181600116156101000203166002900480156152905780601f1061526557610100808354040283529160200191615290565b820191906000526020600020905b81548152906001019060200180831161527357829003601f168201915b505050505090806003018054600181600116156101000203166002900480601f01602080910402602001604051908101604052809291908181526020018280546001816001161561010002031660029004801561532e5780601f106153035761010080835404028352916020019161532e565b820191906000526020600020905b81548152906001019060200180831161531157829003601f168201915b505050505090806004018054600181600116156101000203166002900480601f0160208091040260200160405190810160405280929190818152602001828054600181600116156101000203166002900480156153cc5780601f106153a1576101008083540402835291602001916153cc565b820191906000526020600020905b8154815290600101906020018083116153af57829003601f168201915b505050505090806005018054600181600116156101000203166002900480601f01602080910402602001604051908101604052809291908181526020018280546001816001161561010002031660029004801561546a5780601f1061543f5761010080835404028352916020019161546a565b820191906000526020600020905b81548152906001019060200180831161544d57829003601f168201915b5050505050905086565b60036020528060005260406000206000915090508060000160009054906101000a900460ff16908060000160019054906101000a900460ff16908060000160029054906101000a900460ff16908060000160039054906101000a900460ff16908060000160049054906101000a900460ff16908060000160059054906101000a900460ff16905086565b60008081548092919060010191905055506040518060c00160405280878152602001868152602001858152602001848152602001838152602001828152506002600080548152602001908152602001600020600082015181600001908051906020019061556c9291906158d5565b5060208201518160010190805190602001906155899291906158d5565b5060408201518160020190805190602001906155a69291906158d5565b5060608201518160030190805190602001906155c39291906158d5565b5060808201518160040190805190602001906155e09291906158d5565b5060a08201518160050190805190602001906155fd9291906158d5565b509050506000547f0b9377725d45965137c992f020048ecafaccc0d912234c40f7ef3b586af3e0538787878787876040518080602001806020018060200180602001806020018060200187810387528d818151815260200191508051906020019080838360005b8381101561567f578082015181840152602081019050615664565b50505050905090810190601f1680156156ac5780820380516001836020036101000a031916815260200191505b5087810386528c818151815260200191508051906020019080838360005b838110156156e55780820151818401526020810190506156ca565b50505050905090810190601f1680156157125780820380516001836020036101000a031916815260200191505b5087810385528b818151815260200191508051906020019080838360005b8381101561574b578082015181840152602081019050615730565b50505050905090810190601f1680156157785780820380516001836020036101000a031916815260200191505b5087810384528a818151815260200191508051906020019080838360005b838110156157b1578082015181840152602081019050615796565b50505050905090810190601f1680156157de5780820380516001836020036101000a031916815260200191505b50878103835289818151815260200191508051906020019080838360005b838110156158175780820151818401526020810190506157fc565b50505050905090810190601f1680156158445780820380516001836020036101000a031916815260200191505b50878103825288818151815260200191508051906020019080838360005b8381101561587d578082015181840152602081019050615862565b50505050905090810190601f1680156158aa5780820380516001836020036101000a031916815260200191505b509c5050505050505050505050505060405180910390a2505050505050565b60045481565b60005481565b828054600181600116156101000203166002900490600052602060002090601f016020900481019282601f1061591657805160ff1916838001178555615944565b82800160010185558215615944579182015b82811115615943578251825591602001919060010190615928565b5b5090506159519190615955565b5090565b61597791905b8082111561597357600081600090555060010161595b565b5090565b9056fea165627a7a72305820958a4e6e6b4dbf7c2e488e9eb6809895907263690c6e3f2cc5abe2baf9f316bd0029",
  "source": "pragma solidity ^0.5.5;\nimport \"./b1.sol\";\nimport \"./b2.sol\";\nimport \"./b3.sol\";\nimport \"./b4.sol\";\n\ncontract Master is Barangay1, Barangay2, Barangay3, Barangay4 {}\n",
  "sourcePath": "/Users/chriszertamayo/Desktop/SGV_PROJ/ Barangay/src/contracts/Master.sol",
  "compiler": {
    "name": "solc",
    "version": "0.5.5+commit.47a71e8f.Emscripten.clang"
  },
  "schemaVersion": "3.0.12",
  "updatedAt": "2020-09-01T01:30:23.788Z",
  "devdoc": {
    "methods": {}
  },
  "userdoc": {
    "methods": {}
  }
}